:020000040800F2
:10000000B021002001010008391F0008E512000896
:10001000B1170008510C0008D129000800000000A9
:10002000000000000000000000000000E9220008BD
:10003000550C000800000000D1210008C124000870
:100040001B0100081B0100081B0100081B01000820
:100050001B0100081B0100081B0100081B01000810
:100060001B0100081B0100081B0100081B01000800
:100070001B0100081B0100081B0100081B010008F0
:100080001B0100081B0100081B0100081B010008E0
:100090001B0100081B0100081B0100081B010008D0
:1000A0001B0100081B0100081B0100081B010008C0
:1000B000312500081B0100081B0100081B01000876
:1000C0001B0100081B0100081B0100081B010008A0
:1000D0001B01000839270008992700081B010008A8
:1000E0001B0100081B0100081B010008DFF80CD0F1
:1000F00000F080FB0048004721350008B0210020B7
:100100000648804706480047FEE7FEE7FEE7FEE7B1
:10011000FEE7FEE7FEE7FEE7FEE7FEE7D124000884
:10012000ED00000840EA01039B0703D009E008C97D
:10013000121F08C0042AFAD203E011F8013B00F8AC
:10014000013B521EF9D27047D2B201E000F8012BF8
:10015000491EFBD270470022F6E710B513460A4647
:1001600004461946FFF7F0FF204610BD30B505469E
:100170002A460B4612F8010B13F8014B08B1A042B6
:10018000F8D01CB1002802D06D1CF1E7284630BD24
:10019000421C10F8011B0029FBD1801A7047F0B4F3
:1001A00080EA0102D40F4200B2EB410F02D20246B4
:1001B000084611464A0042D0C30DDDB2C1F3C75212
:1001C000AD1A202D35DAC1F3160141F4000204B155
:1001D0005242C5F1200602FA06F12A411044B3EB5F
:1001E000D05F23D0C4B1012DA0EBC35009DCF0BC1B
:1001F0004FF0004202EAC352DBB200F5000000F00B
:1002000012B9400000F1807000EBC350A0F1807083
:1002100040EAD170490009E0490841EAC071A0EB09
:10022000C35000F50000400800EBC350F0BC00F0E4
:10023000F1B86142012202EB4101001BF6E7F0BC7C
:10024000704781F00041AAE780F00040A7E780EA0C
:10025000010210B502F00043400022D04A001FD036
:10026000010E01EB1261C0F35600C2F3560240F4D6
:10027000000042F40002A0FB022000047F391404B5
:1002800000D0401C50EA124001D44000491EC2B2C6
:100290000C0604EBD010401C4008802A02D003E07A
:1002A000002010BD20F00100002900DA00201843D2
:1002B00010BD30B480EA010202F0004530F0004287
:1002C00021F0004013D090B1C30DD40DC2F316013C
:1002D000C0F31600E41A41F4000140F400027D343A
:1002E000914201D3641C00E04900002C02DA30BCCA
:1002F000002070474FF400000023914201D3891A77
:10030000034340084FEA4101F7D151B1914202D174
:100310004FF0004105E002D24FF0010101E06FF023
:10032000010103EBC450284430BC00F073B896239D
:100330000022114600F077B820F00040C10DC0F354
:10034000160040F400007F2901DA0020704796294A
:1003500003DCC1F19601C840704796398840704768
:1003600000F0004230F000400AD0C10D01F560718C
:10037000C0F3160042EA0151C2084007114370471A
:1003800000200146704730B50B4601460020202270
:10039000012409E021FA02F59D4205D303FA02F592
:1003A000491B04FA02F52844151EA2F10102F1DCF2
:1003B00030BD2DE9F05F0546002092469B468846F9
:1003C0000646814640241BE02846414647462246D1
:1003D00000F031FA53465A46C01A914110D31146E3
:1003E0001846224600F018FA2D1A67EB01084F460E
:1003F00022460120002100F00FFA17EB00094E41C0
:10040000201EA4F10104DFDC484631462A4643465B
:10041000BDE8F09F0029A8BF7047401C490008BFF5
:1004200020F00100704710B4B0FA80FC00FA0CF024
:1004300050EA010404BF10BC704749B1CCF120045C
:1004400021FA04F411FA0CF118BF012121430843E9
:10045000A3EB0C01CB1D4FEA00614FEA102042BF15
:10046000002010BC704700EBC35010440029A4BF0B
:1004700010BC7047401C490008BF20F0010010BCB0
:1004800070472DE9FE4F804681EA0300C00F0C46FD
:10049000009021F0004123F00045B8EB0200A94193
:1004A00005D24046214690461C460B46024623F0A4
:1004B0000040104347D0270DC7F30A00C3F30A5189
:1004C0000290401A019040286BDAC3F3130040F405
:1004D000801B0098924620B10023D2EB030A63EB05
:1004E0000B0B01985946C0F14002504600F094F9B8
:1004F00006460D4650465946019A00F0ACF910EBFD
:1005000008006141002487EA115284EAE7731A4324
:1005100040D0009A62B3019A012A4FEA075215DCD3
:10052000001B61EB02014FF0004202EA0752CDE9E5
:100530000042001C41F5801132462B4600F0ACF918
:1005400003B0BDE8F08F40462146F9E7001B61EBA0
:100550000201001C41F5801300185B412018A2F530
:10056000001747EB030140EAD570B6196D4111E061
:100570006D084FEA360645EAC0754FEA0752001B80
:1005800061EB0201001C41F5801149084FEA30007F
:100590000019514132462B4603B0BDE8F04F00F040
:1005A0006CB90098012240000023D0EB020263EBFB
:1005B000E073009821464FEAE074B8EB000061EB6D
:1005C0000401E9E783F000435BE781F0004158E76D
:1005D0002DE9FE4F81EA030404F0004421F00041BC
:1005E00000944FF0000B23F0004350EA01045ED06A
:1005F00052EA03045BD0C3F30A54C1F30A552C44F6
:10060000A4F2F3340194A0FB0254C1F3130141F4AA
:100610008011C3F3130343F4801301FB024400FB76
:10062000034E840A970A44EA815447EA8357A4FB9D
:10063000076802958D0A05FB07854FEA932C04FB9A
:100640000C542705029D4FEA065847EA1637B5EBCA
:1006500008056EEB070C870E920E47EA811742EAF7
:100660008312A7FB0201B6EB0B0164EB00042B0D18
:1006700043EA0C335E1844EB1C50DA465146E7FB64
:100680000201C5F313044FEA0B3343EA14534FEA54
:100690000432019C43EA0603A4F10C040294009C7A
:1006A000CDE900B400F0F8F803B0BDE8F08F002009
:1006B0000146F9E72DE9F04D81EA030404F0004B0F
:1006C00021F0004514464FF0000A23F0004150EAA3
:1006D000050220D054EA01021DD0C5F30A57024694
:1006E000C5F31303C1F31300C1F30A5640F4801598
:1006F00043F48013A7EB0608101BD64608F2FD381A
:1007000073EB050002D308F1010801E092185B4188
:10071000B8F1000F03DA00200146BDE8F08D00209B
:100720004FF48011064684460EE0171B73EB050755
:1007300005D3121B63EB050306434CEA010C490881
:100740004FEA300092185B4150EA0107EDD152EABE
:10075000030012D082EA040083EA0501084305D0B1
:10076000101BAB4106D20122002306E000224FF00D
:10077000004302E06FF0010253101AEB06004CEB4D
:10078000085110EB0A0041EB0B01BDE8F04D00F001
:1007900074B8C1F30A52C1F3130140F2FF3341F4BC
:1007A00080119A4202DA00200146704740F233433A
:1007B0009A42A2F2334202DC524200F03CB800F00E
:1007C0002BB8000030B5041E71F1000404DB4FF0BB
:1007D0000044404264EB0101141E73F1000405DB88
:1007E0001C464FF00043524263EB0403994208BF9A
:1007F000904230BD064C074D06E0E06840F0010332
:1008000094E8070098471034AC42F6D3FFF772FC27
:10081000305F0008505F0008202A04DB203A00FA0D
:1008200002F1002070479140C2F1200320FA03F347
:10083000194390407047202A04DB203A21FA02F045
:100840000021704721FA02F3D040C2F1200291400A
:10085000084319467047202A06DBCB17203A41FA95
:1008600002F043EAE07306E041FA02F3D040C2F13D
:100870002002914008431946704710B5141E73F1C9
:10088000000408DA401C41F1000192185B411A4350
:1008900001D120F0010010BD2DE9F04D92469B469C
:1008A00011B1B1FA81F202E0B0FA80F22032904642
:1008B000FFF7B2FF04460F4640EA0A0041EA0B0187
:1008C00053465A46084313D0114653EA010019D043
:1008D000C8F140025046FFF7AEFF05460E465046AF
:1008E00059464246FFF798FF084305D0012004E02F
:1008F00020463946BDE8F08D0020054346EAE07603
:100900002C4337430A986305E40AA0EB0800002251
:10091000FD0A44EA47540A3002D500200146E9E7BF
:10092000010510196941DDE9084500196941BDE873
:10093000F04DA2E770B58C1810F8015B15F00703B5
:1009400001D110F8013B2A1106D110F8012B03E068
:1009500010F8016B01F8016B5B1EF9D12B0705D470
:100960000023521E0DD401F8013BFAE710F8013BB9
:10097000CB1A921C03E013F8015B01F8015B521ED5
:10098000F9D5A142D8D3002070BD000010B515489C
:100990004078012804D12021134800F08EFC03E0A8
:1009A0002021114800F087FC0E488078012804D1EE
:1009B00040210D4800F081FC03E040210A4800F08E
:1009C0007AFC0848C078012803D100020749086072
:1009D00004E04FF480700549091D086000F096FEA0
:1009E00010BD000000000020000C01401008014074
:1009F00010B5802200211748FFF7A6FB164A17A161
:100A0000144801F0FDFF1348FFF7C2FB14490860CA
:100A1000802200211348FFF797FB0F4A14320FA1E1
:100A2000104801F0EDFF0F48FFF7B2FB0E490860D8
:100A3000802200210D48FFF787FB074A283207A1D3
:100A40000A4801F0DDFF0948FFF7A2FB08490860EA
:100A500010BD0000EE170020100F002025730000CD
:100A60000C0900206E19002010090020EE1900204A
:100A70001409002010B500F02FFC044620220021AC
:100A8000104603F019F821220021302003F014F859
:100A900006220021402003F00FF8072200215020F9
:100AA00003F00AF83F48007860B13F480068201A18
:100AB0003E490968884205D900203D4908703949F6
:100AC00008705AE03A480078012829D13548007862
:100AD00020B9354804600120324908703548007853
:100AE00002284AD033480078032846D0022000F07C
:100AF000CBFD01F0B1FC24220421202002F0DCFF18
:100B000025220421302002F0D7FF26220421402094
:100B100002F0D2FF27220421502002F0CDFF2CE06A
:100B20002348007824490978884226DB1E4800685B
:100B3000201A1E49096888421FD81E4800780328D9
:100B40001BD003201749087000F09EFD01201B49AF
:100B5000C8700C220421202002F0AEFF0D220421D7
:100B6000302002F0A9FF0E220421402002F0A4FF51
:100B70000F220421502002F09FFF0B480068201A2A
:100B80000F49096888420BD9002000F07DFD002044
:100B90000A49C87010230BA20421202002F0C0FFD4
:100BA00010BD000015000020080000200C000020EF
:100BB00016000020E00D002014000020000000209E
:100BC00010000020202020202020202020200000B5
:100BD00007480078012805D0012006494870002008
:100BE000887004E000200349487001208870704735
:100BF000050000200000002010B500F083FA34202A
:100C000000F0ECF900F046FA02F0E6FF00F004FF15
:100C100001F04EFD10BD000008B50121042001F0D7
:100C2000E9FA4FF48070ADF8000010208DF8030051
:100C300003208DF802006946044800F0A8FA4FF43A
:100C4000807002491431086008BD000000080140AE
:100C500000BFFEE77047014605E0002001E0421CAE
:100C6000D0B27B28FBDB0A1EA1F10101F5D1704750
:100C700010B54548007860B100204349087002F083
:100C80005AFE00204149087000F0FEFC0020404957
:100C9000C8704048007838B100203E49087002F022
:100CA0004AFE0120394908703B48007838B10020DD
:100CB0003949087002F03FFE022034490870374875
:100CC000007838B100203549087002F034FE032066
:100CD0002E4908702D480078002841D10022114685
:100CE000202002F0E9FE01220021302002F0E4FE83
:100CF00002220021402002F0DFFE032200215020CA
:100D000002F0DAFE31220221002002F0D5FE332269
:100D10000221102002F0D0FE102321A20221202067
:100D200002F0FEFE1F48102302214268302001F02D
:100D300011FA32220421002002F0BEFE33220421E7
:100D4000102002F0B9FE102315A20421202002F089
:100D5000E7FE1448102304218268302001F0FAF9DC
:100D60000A480078012801D1FFF784FE074800787F
:100D7000022801D100F026FD04480078032801D1A3
:100D800001F0B4FC10BD0000200000200500002090
:100D9000000000202100002022000020230000206D
:100DA0003A0000004409002010B51C48007858B9EA
:100DB00001201A49087002F0ADFB194908600221B0
:100DC000184800F078FA26E014480078012812D17B
:100DD00002F0A0FB12490968401AFA281BD9022028
:100DE0000E49087002F096FB0D49086002210D487B
:100DF00000F063FA0FE00948007802280BD102F0F6
:100E000089FB07490968401AFA2804D900200349D8
:100E10000870012010BD0020FCE70000D40800206D
:100E2000D00800200008014010B501F05FFA4A48E0
:100E30000078002819D1FFF7B7FF002814D001204F
:100E40004549087045A348A249A14F4801F0D8FD83
:100E50004EA14D48503001F0D3FD4F484F4A50A1AC
:100E60000368564801F0CCFD6FE03B48007800284D
:100E70002CDD39480078092828DC3749097801EB4E
:100E8000810202EBC1014E4A02EBC10002F0CCFE2E
:100E90000446012C14D130480078401C2E490870BB
:100EA00008460078092850DD21024648FFF753F92B
:100EB00000204449091FC1F8040100F05BFC44E034
:100EC000022C42D10020244908703EE002F046FE88
:100ED00002F020FB3C490968401A40F6B8318842CC
:100EE00005D302F017FB3849086002F0ADFC374823
:100EF000007890B13648007878B902F00BFB35499C
:100F00000968401AB0F57A7F07D302F003FB314934
:100F100008600121304800F0CFFD02F079FB02F0BB
:100F2000F9FA2849091F0968401A4FF47A71B0FB91
:100F3000F1F009494881084640890A2805DD00206A
:100F400008700846007B401C08730348407A401C28
:100F50000149487210BD0000F00D002031323334D9
:100F6000353637380000000061626364000000001D
:100F700041542B43574A41503D222573222C2225B0
:100F800073220D0A0000000034020020434F4E4E31
:100F90004543544544000000CC0800204C08002084
:100FA00041542B43495053544152543D22544350D1
:100FB000222C222573222C25640D0A006C030020AC
:100FC0002C000020040E0020D8080020E608002095
:100FD000E7080020DC0800204C0F00200149C86011
:100FE000704700000020024030B5044604254FF44D
:100FF000302000F093F80546042D17D10C48006905
:1010000040F002000A49086108464461006940F066
:10101000400008614FF4302000F080F80546044895
:10102000006941F6FD71084001490861284630BD5C
:101030000020024070B5044600F064F83520FFF748
:10104000CDFF2046FFF7D0FF0546042D03D000F06A
:1010500021F8002070BD00F01DF80120FAE7000023
:1010600004200B49C96801F0010109B101200EE01B
:101070000749C96801F0040109B1022007E00449E9
:10108000C96801F0100109B1032000E00420704795
:10109000002002400348006940F0800001490861D7
:1010A000704700000020024070B504460D4604263B
:1010B000F00200F033F80646042E11D10948006909
:1010C00040F00100074908612580F00200F026F891
:1010D00006460448006941F6FE710840014908616E
:1010E000304670BD0020024010B50346002005E0E8
:1010F00033F8104021F81040441CA0B29042F7D3BE
:1011000010BD00000248034948600348486070472A
:101110002301674500200240AB89EFCD00B50246B0
:101120000423FFF79DFF034603E0FFF799FF034603
:10113000521E012B01D1002AF7D102B9052318460E
:1011400000BD2DE9F04105460F46904605F001002F
:1011500010B10020BDE8F0812846FFF76BFFFFF7D4
:10116000D1FF00240DE037F8141005EB4400FFF721
:101170009BFF0646042E03D0FFF78CFF0020E9E713
:10118000641C4445EFD3FFF785FF0120E2E72DE91A
:10119000F0410246002500260020002300240027FD
:1011A00091F803C00CF00F0591F803C00CF0100C7F
:1011B000BCF1000F03D091F802C04CEA050591F88C
:1011C00000C0BCF1000F31D0146800202BE04FF0BC
:1011D000010C0CFA00F3B1F800C00CEA03069E42C1
:1011E00020D183004FF00F0C0CFA03F7BC4305FA33
:1011F00003FC4CEA040491F803C0BCF1280F06D1AB
:101200004FF0010C0CFA00FCC2F814C00AE091F88F
:1012100003C0BCF1480F05D14FF0010C0CFA00FCE3
:10122000C2F810C0401C0828D1D31460B1F800C027
:10123000BCF1FF0F34DD546800202EE000F1080CF3
:101240004FF0010808FA0CF3B1F800C00CEA0306ED
:101250009E4221D183004FF00F0C0CFA03F7BC43E0
:1012600005FA03FC4CEA040491F803C0BCF1280F12
:1012700005D100F1080C08FA0CF8C2F8148091F8B6
:1012800003C0BCF1480F07D100F1080C4FF0010872
:1012900008FA0CF8C2F81080401C0828CED354601D
:1012A000BDE8F0810246002093680B400BB101209D
:1012B00000E000207047416170470161704700B550
:1012C000014600F009F802460B4600BF00F004F8A2
:1012D000801A9842FAD300BD0148006870470000A8
:1012E0001C00002000BFFEE770B5044608251DE085
:1012F0004FF480501249086000F0A0F804F080001C
:1013000028B14FF400600E49091F086003E04FF454
:1013100000600B4908606006040E00F08FF84FF47F
:1013200080500749091F086000F088F8281EA5F1C1
:101330000101CDB2DCD14FF480500149086070BD8D
:101340001408014010B54FF40060154908604000D2
:10135000086000F073F812480838006808B90120E6
:1013600000E0002000F4006008B1002010BD4FF440
:1013700000600B49091D086000F060F80848083853
:10138000006800F4006008B10020EFE74FF400604F
:101390000349091D086000F051F80120E6E700004C
:1013A0001008014010B54FF480500C49086000F05F
:1013B00045F84FF400600949086000F03FF84FF429
:1013C00080500649091F086000F038F84FF40060AB
:1013D0000249091F086000F031F810BD14080140EF
:1013E00010B54FF480501449086000F027F84FF40E
:1013F00000601149091F086000F020F84FF4805088
:101400000D49091F086000F019F80B480C380068F6
:1014100000F4006038B14FF480500749086000F0D4
:101420000DF8002010BD4FF480500349086000F013
:1014300005F80120F6E7000014080140052001E04E
:10144000411EC8B20028FBD17047000008B5012139
:10145000082000F0CFFE4FF47040ADF800004820A7
:101460008DF8030069460848FFF791FE6946064873
:10147000FFF78DFE69460448FFF789FE694602487A
:10148000FFF785FE08BD0000000C0140034800780E
:1014900010B90120014908707047000020000020A9
:1014A0000348007810B90120014908707047000016
:1014B000210000200348007810B90120014908707C
:1014C00070470000220000200348007810B9012076
:1014D00001490870704700002300002010B54FF448
:1014E00080515548FFF7DEFEE0B954480068C8B99E
:1014F00053480068401C52490860084600680228AA
:101500000FDD4FF480514C48FFF7CCFE002808D186
:101510004A4800680028FAD1FFF7B8FF0120474980
:10152000086088E04FF400514348FFF7BBFEE0B984
:1015300042480068C8B942480068401C40490860F9
:1015400008460068022876DD4FF400513A48FFF75C
:10155000A9FE00286FD13948006800286BD1FFF739
:101560009FFF01203549086065E04FF48041324813
:10157000FFF798FEE0B931480068C8B93048006804
:10158000401C2F49086008460068022853DD4FF4CC
:1015900080412948FFF786FE00284CD12748006883
:1015A000002848D1FFF786FF01202449086042E067
:1015B0004FF400412048FFF775FED0B91F4800687E
:1015C000B8B91F480068401C1D49086008460068FB
:1015D000022830DD4FF400411748FFF763FE50BB8F
:1015E0001648006838BBFFF76FFF012013490860F9
:1015F00021E04FF480511048FFF754FE01281AD122
:1016000041030D48FFF74EFE012814D181030A481B
:10161000FFF748FE01280ED1C1030748FFF742FE3D
:10162000012808D105480068012804D10020044998
:1016300008600249086010BD000C0140280000202D
:101640002400002008B50121082000F0D3FDE0208F
:10165000ADF8000010208DF8030003208DF8020083
:1016600069460848FFF793FD20210648FFF723FE4F
:1016700040210448FFF71FFE80210248FFF71BFEB0
:1016800008BD0000000C014010B504461D48047060
:10169000FFF722FE1B49486034B1012C0CD0022C0C
:1016A00012D0032C2BD11EE080211748FFF703FE38
:1016B00000201449487022E080211348FFF7FDFD07
:1016C0000120104948701AE04FF4FA700D49886003
:1016D00040F2DC50C86080210B48FFF7EEFD01208E
:1016E000084948700BE0642006498860C860802182
:1016F0000548FFF7E2FD01200249487000BF00BF26
:1017000010BD0000E00D0020000C014070B517482E
:10171000007818B115480078012800D170BDFFF796
:10172000DBFD04461148407810B11048806801E0A4
:101730000E48C06805460D484068201AA84213D3D9
:101740000A48407838B180210948FFF7B4FD0020ED
:101750000649487006E080210548FFF7AEFD0120EC
:10176000024948700148446000BFD7E7E00D0020FF
:10177000000C014010B5002007494873074808498C
:10178000086008460068074908600748074908607C
:1017900000F068F810BD0000F00D002018110020C6
:1017A000F8080020FC080020F416002000090020A2
:1017B00000BFFEE710B5FFF70BFAFFF7E7F8FFF7FA
:1017C00057FA10BD10B5102318A20021084602F0E8
:1017D000A7F9102317A20221002002F0A1F917484F
:1017E0000278102300213C2000F094FC1348427B37
:1017F000102302213C2000F08DFC102310A20421B4
:10180000002002F08DF910230FA20421302002F0F5
:1018100087F910230EA20621002002F081F910237F
:101820000DA20621302002F07BF910BD4E45543A3E
:10183000000000004D515F434E540000F00D0020A9
:101840004E616D653A000000616263640000000053
:10185000506173733A000000313233343536373813
:10186000000000002DE9F04101240A2763480068C8
:10187000001D634909680844801C6249096800EB3F
:10188000010807EB080510205F49087012E02846A0
:10189000E91705EB5161C911A5EBC116E91705EB75
:1018A0005161CD11002D01DD46F080062046641CFB
:1018B00055490E54002DEADC0020534908550421F7
:1018C000514A601C11544D21A01C11545121E01C9F
:1018D00011545421201D1154601D11540421A01DC8
:1018E0001154C221E01D11540021401C11546421E7
:1018F000401C115441490868C11700EB1161C1F344
:101900000722414B04F10A015A543C490868C117A7
:1019100000EB11610912A0EB0121CAB204F10B0125
:101920005A541A46491C501834490A683749FEF778
:10193000F9FB33490868C11700EB1161C1F30722B5
:1019400004F10C012D4B1B6819442F4B5A542C49A0
:101950000868C11700EB11610912A0EB0121CAB29E
:1019600004F10D01254B1B681944274B5A5404F10F
:101970000E01224A126811441A46881820490A6842
:101980002349FEF7CFFB1F490868C11700EB11611F
:10199000C1F3072204F10E01184B1B681944184BC0
:1019A0001B681944184B5A5416490868C11700EBB4
:1019B00011610912A0EB0121CAB204F10F010F4B12
:1019C0001B6819440E4B1B6819440F4B5A5404F101
:1019D00010010A4A12681144094A126811441A4651
:1019E000881808490A680B49FEF79CFBE01900EBD0
:1019F0000801054801F0DAFEBDE8F0810C0900207D
:101A00001009002014090020740F0020EE17002098
:101A10006E190020EE19002010B56C211748FEF752
:101A20009AFB01F00DFD1649B0FBF1F201FB12002B
:101A300012494860084613A215A14368083000F017
:101A4000DFFF0E4814A212A143681C3000F0D8FF3B
:101A50000A4814A20EA14368303000F0D1FF0748B5
:101A600013A20BA14368443000F0CAFF034811A23F
:101A700007A14368583000F0C3FF10BD080F0020D5
:101A800040420F004445564943454E414D450000F4
:101A9000257325303664000050524F445543544B53
:101AA0004559000044455649434553454352450076
:101AB00070756200737562002DE9F05F06460F468F
:101AC00001254FF0020A3046FEF762FB00F10308E1
:101AD0000AEB080482202549087013E02046E1172C
:101AE00004EB5161C911A4EBC119E11704EB516179
:101AF000CC11002C01DD49F0800928466D1C1B49E2
:101B000001F80090002CE9DC0020184948550A2112
:101B1000164A681C11543046FEF73AFBC0F3072101
:101B2000124AA81C11543046FEF732FBC1B20F4ACC
:101B3000E81C11543046FEF72BFB83460B4A291D47
:101B400050185A463146FEF7EDFA3046FEF720FBB4
:101B5000291D084405490F5405EB0A0000EB080154
:101B6000024801F023FEBDE8F09F0000740F002042
:101B700000B585B00121042000F03CFB0121880361
:101B800000F038FB18208DF813004FF40070ADF80A
:101B9000100001208DF8120004A91648FFF7F7FA8B
:101BA00004208DF813000002ADF8100004A91148BC
:101BB000FFF7EDFA4FF4165000900020ADF80C003E
:101BC0000C20ADF80A000020ADF80800ADF80600C2
:101BD000ADF804006946084800F05AFE012240F2C0
:101BE0002551054800F02EFE0121034800F0F4FDC8
:101BF00005B000BD000801400038014000B585B0C7
:101C00000121042000F0F6FA0121480400F0E2FA74
:101C100018208DF813000420ADF8100001208DF875
:101C2000120004A91648FFF7B2FA04208DF8130039
:101C30000820ADF8100004A91148FFF7A8FA4FF4E6
:101C4000E13000900020ADF80C000C20ADF80A0047
:101C50000020ADF80800ADF80600ADF804006946B4
:101C6000084800F015FE012240F22551054800F019
:101C7000E9FD0121034800F0AFFD05B000BD000003
:101C800000080140004400400246134610E010786E
:101C90002A2805D01078202802DB10787A2801DD68
:101CA000FF20704710782C2801D1481EC1B2521C69
:101CB0000029ECD1D01AC0B2F3E700002DE9F04FB3
:101CC00085B00446884659A14046FEF74FFA0646BD
:101CD00003213046FFF7D8FF0546FF2D43D070198A
:101CE00004A900F0B4F807469DF81000801CC1B2AA
:101CF0000A2000F0A1F8B7FBF0F020609DF810007A
:101D0000801CC1B20A2000F097F8B7FBF0F100FB8D
:101D1000117A5046FEF70BFB81469DF81000C0F18A
:101D20000500C1B20A2000F087F80090FEF7FFFA24
:101D300083464946FEF78BFA82463E49FEF7B9FADA
:101D4000052102900A2000F077F8216800FB01FAD3
:101D50005046FEF7ECFA01900299FEF720FA039044
:101D6000FEF7EAFA206004213046FFF78DFF0546B2
:101D7000FF2D01D0705D207105213046FFF784FFF3
:101D80000546FF2D45D0701904A900F060F80746FC
:101D90009DF81000801CC1B20A2000F04DF8B7FB7E
:101DA000F0F044F8050F9DF81000801CC1B20A2025
:101DB00000F042F8B7FBF0F100FB117A5046FEF755
:101DC000B6FA81469DF81000C0F10500C1B20A20A4
:101DD00000F032F80090FEF7AAFA83464946FEF773
:101DE00036FA82461349FEF764FA052102900A206A
:101DF00000F022F8216800FB01FA5046FEF797FA3E
:101E000001900299FEF7CBF90390FEF795FA44F89A
:101E1000050906213046FFF737FF0546FF2D01D0A3
:101E2000705D607205B0BDE8F08F000024474E522F
:101E30004D4300000000704210B50246012000E052
:101E400050430B1EA1F10104E1B2F9D110BD2DE9FF
:101E5000F34F81B007463C46002000908346814600
:101E60000026804628E020782D2802D148F002087C
:101E7000641C20782C2802D020782A2800D11CE06D
:101E800020782E2803D148F00108641C09E020784E
:101E9000392802DC2078302803DA4FF000090026C8
:101EA0000BE008F0010010B1701CC6B203E009F1AC
:101EB000010000F0FF09641CD5E700BF08F0020034
:101EC00000B17F1C00250EE0A9F10100401BC1B24A
:101ED0000A20FFF7B1FF795D3039009A00FB01203D
:101EE0000090681CC5B24D45EEDB052E00DD0526D1
:101EF0000298067000250EE0701E401BC1B20A2039
:101F0000FFF79AFF09F101012944795C303900FBA0
:101F100001BB681CC5B2B542EEDB31460A20FFF7B3
:101F20008BFF009901FB00BA08F0020008B1CAF16A
:101F3000000A5046BDE8FE8F704708B54FF4A06018
:101F400000F064F81C208DF8000002208DF80100DC
:101F50008DF8020001208DF80300684600F01EF89D
:101F600025208DF8000002208DF801008DF8020078
:101F700001208DF80300684600F010F826208DF847
:101F8000000002208DF801008DF8020001208DF87C
:101F90000300684600F002F808BD000070B500219B
:101FA00000230F22C47804B3154C246804F4E064C1
:101FB000C4F5E064210AC1F10403CA40447804FA7C
:101FC00003F184781440214309010E4C0678A15591
:101FD000047804F01F050124AC4005786D11AD00B4
:101FE00005F1E025C5F8004109E0047804F01F057B
:101FF0000124AC40044D0678761145F8264070BDAA
:102000000CED00E000E400E080E100E00249014363
:10201000024A1160704700000000FA050CED00E074
:1020200010B5002807DA0A07140E054A00F00F035E
:102030001B1FD45403E00A07130E024A135410BDA9
:1020400018ED00E000E400E070B504460D4605F12F
:10205000B000002100F0A6F8102141EA1410002180
:1020600000F0A0F804F00F00002100F09BF870BD14
:102070002DE9F04707460E46904699460025002474
:10208000A8F12000C5B27F2F02DD0027B01CC6B228
:10209000B9F1100F24D131463846FFF7D5FF00249F
:1020A00008E004EB0511194A505C012100F07AF8B0
:1020B000601CC4B2082CF4DB701CC1B23846FFF7B8
:1020C000C3FF002409E004EB051108310F4A505CFE
:1020D000012100F067F8601CC4B2082CF3DB12E0A9
:1020E00031463846FFF7B0FF00240AE005EB450112
:1020F000074A02EB4101085D012100F053F8601C22
:10210000C4B2062CF2DBBDE8F0870000183F0008DF
:10211000F03C0008F0B585B004460D4616461F4653
:1021200014220A496846FDF7FDFF324608A16846B9
:1021300000F066FC00208DF805003B466A46294603
:10214000204601F0EDFC05B0F0BD0000085F00087E
:10215000253364002DE9F04385B005460E4614464C
:10216000994614220C496846FDF7DCFF2046FEF72D
:10217000F7F807463A460B4608A1684600F040FCCF
:1021800000208DF80A004B466A463146284601F089
:10219000C7FC05B0BDE8F0831C5F00082531302E78
:1021A0003666000070B504460D463DB1E2B24021EE
:1021B000782000F061F90549087006E0E2B20021DC
:1021C000782000F059F90149087070BD1A0000200C
:1021D0007047000029B1064AD2690243044BDA6114
:1021E00004E0034AD2698243014BDA617047000080
:1021F0000010024029B1064A92690243044B9A61D9
:1022000004E0034A92698243014B9A6170470000DF
:102210000010024030B500210022002400232D4D83
:102220006D6805F00C0121B1042905D0082923D1DE
:1022300005E0294D056022E0274D05601FE0254D92
:102240006D6805F47012234D6D6805F48034022525
:1022500005EB92421CB9214D554305600BE01D4D25
:102260006D6805F400351DB11C4D5543056002E055
:10227000194D5543056002E0174D056000BF00BFD2
:10228000144D6D6805F0F0010909154D6B5C05688A
:10229000DD4045600F4D6D6805F4E061090A104DA1
:1022A0006B5C4568DD4085600A4D6D6805F46051E2
:1022B000C90A0B4D6B5C4568DD40C560054D6D6816
:1022C00005F44041890B074D6B5CC568B5FBF3F520
:1022D000056130BD0010024000127A0000093D0087
:1022E00030090020400900207047000010B501F0BF
:1022F00011F90E490968401AB0F57A7F06D301F04A
:1023000009F90A490860012009490870084800785D
:1023100058B108480078092804DD0748007808B15A
:1023200001F032F900200249087010BDE0080020D9
:1023300000000020F00D0020E708002010B500F09C
:1023400001F810BD0CB500200190009033480068E2
:1023500040F480303149086000BF3048006800F424
:10236000003000900198401C0190009818B9019825
:10237000B0F5A06FF1D12948006800F4003010B129
:102380000120009001E0002000900098012843D136
:102390002348006840F010002149086008460068A2
:1023A00020F0030008600846006840F00200086062
:1023B0001A4840681949486008464068486008461D
:1023C000406840F4806048600846406820F47C1013
:1023D00048600846406840F4E810486008460068D5
:1023E00040F08070086000BF0C48006800F000708A
:1023F0000028F9D00948406820F0030007494860E8
:102400000846406840F00200486000BF034840684A
:1024100000F00C000828F9D10CBD000000100240AB
:102420000020024010B510210148FEF73BFF10BD0F
:102430000008014008B501210420FFF7DBFE04205D
:102440008DF803001020ADF8000069460148FEF742
:102450009EFE08BD0008014010B54FF4807005498C
:102460000860642000F0B2FF4FF480700149091D3C
:10247000086010BD1008014070B506460C461546B0
:10248000FEF760FF08B9002070BD3046FEF72CFF54
:10249000FEF7A6FF18B9FEF785FF0020F4E72046F7
:1024A000FEF722FFFEF79CFF2846FEF71DFFFEF712
:1024B00097FFFEF777FF00F025FF0120E4E700001B
:1024C00002480068401C0149086070471C00002059
:1024D00010B51348006840F0010011490860084633
:1024E0004068104908400E494860084600680E4997
:1024F00008400B4908600846006820F48020086006
:102500000846406820F4FE0048604FF41F008860D1
:10251000FFF714FF4FF000600449086010BD000091
:10252000001002400000FFF8FFFFF6FE08ED00E09B
:1025300010B50121880700F04FF8A8B1FEF7CEFFD3
:10254000FFF770FF094908700846007840B908484D
:102550000078012804D107480078401C054908701C
:102560000121880700F029F810BD0000440900206F
:1025700005000020160000203EB505460C4601214E
:102580000846FFF727FEA8B2ADF80400A0B2ADF8E8
:1025900000000020ADF80600ADF8020069464FF0DB
:1025A000804000F033F801221146900700F025F832
:1025B0000121880700F004F83EBDCA43028270473B
:1025C00021B1028842F00102028004E002884FF645
:1025D000FE731A400280704730B502460020002387
:1025E0000024158A05EA0103958905EA010413B15F
:1025F0000CB1012000E0002030BD1AB183890B43EB
:10260000838102E083898B438381704700220288A3
:102610001D4B98420ED01D4B98420BD0B0F1804F0D
:1026200008D01B4B984205D01A4B984202D01A4B47
:10263000984204D14FF68F731A404B881A43174BB8
:10264000984207D0164B984204D04FF6FF431A40E9
:10265000CB881A4302808B8883850B8803850A4BBD
:1026600098420BD0094B984208D00E4B984205D0A7
:102670000D4B984202D00D4B984201D10B7A038644
:102680000123838270470000002C01400034014088
:102690000004004000080040000C00400010004012
:1026A0000014004000400140004401400048014047
:1026B00010B50C48008845F2555188420BD00846A9
:1026C000084908806422084906486630FDF72AFD5B
:1026D00001F002FB05E06422024966310248FDF781
:1026E00021FD10BD50090020100F002010B510234F
:1026F0000CA20021084601F013FA10230B4A022114
:10270000002001F00DFA102309A20421002001F09D
:1027100007FA1023054A143A0621002001F000FAB6
:1027200010BD00005375623A00000000600F0020E9
:102730005075623A0000000010B540F22551134870
:1027400000F056F800B3114800F00EF9C4B210487A
:10275000008800F4004090B90D480088B0F5C87FAB
:1027600007DA0B490888411C094A118009490C54B1
:1027700005E00748008840F400400549088040F221
:102780002551024800F019F810BD00000038014042
:1027900018000020500B002010B5024800F0FCF893
:1027A00010BD00000044004001F40072B2F5007F4B
:1027B00000D100BFCA430280704710B50022002339
:1027C00040F66A14A14200D100BF0A1201249440CD
:1027D000A3B2DC43048010BD21B1828942F40052CF
:1027E000828104E082894DF6FF731A40828170472E
:1027F00070B50246002400230025002040F66A162A
:10280000B14200D100BFC1F3421501F01F03012600
:1028100006FA03F3012D02D19689334006E0022D1A
:1028200002D1168A334001E0968A33400C12012609
:1028300006FA04F41688344013B10CB1012000E00C
:10284000002070BDF0B503460024002600250020BE
:1028500040F66A17B94200D100BF1846C1F34214CE
:1028600001F01F06012707FA06F5012C01D10C30F3
:1028700004E0022C01D1103000E014301AB10768D6
:102880002F43076002E00768AF430760F0BD000018
:102890002DE9F04786B005460E460024A24600BF4B
:1028A000A1460027B08900B100BF2F462C8A4CF604
:1028B000FF700440F08804432C82AC894EF6F3107C
:1028C0000440B08831890843718908430443AC81CE
:1028D000AC8A4FF6FF400440B0890443AC8201A8A3
:1028E000FFF798FC1F48874202D1DDF810A001E0F5
:1028F000DDF80CA0A88900F4004040B10AEBCA0042
:1029000000EB0A1031684900B0FBF1F807E00AEB70
:10291000CA0000EB0A1031688900B0FBF1F86420AE
:10292000B8FBF0F004012009642101FB1089A8899B
:1029300000F4004040B1322000EBC900B0FBF1F0E0
:1029400000F00700044308E0322000EB0910642186
:10295000B0FBF1F000F00F0004432C8106B0BDE89D
:10296000F08700000038014001468888C0F3080065
:10297000704700B50246D1F80401FF280BD8081DA6
:10298000D1F80431C254D1F80401401CC1F804014B
:1029900000F0C0FD086000BD70B50446208800F05E
:1029A000200018B9208800F0080060B1A088C5B2E6
:1029B00020212046FFF7F8FE0348844203D1034953
:1029C0002846FFF7D6FF70BD00440040000E0020EF
:1029D00000BFFEE708B501210420FFF70BFC022031
:1029E000ADF8000010208DF8030003208DF80200E0
:1029F00069460248FEF7CBFB08BD00000008014015
:102A00000FB4084B10B504A902AA039800F0DEF831
:102A1000044602A9002000F070FC204610BC5DF8BE
:102A200014FB0000FB32000802E008C8121F08C1B6
:102A3000002AFAD170477047002001E001C1121F3F
:102A4000002AFBD1704700002DE9FF5F82B0002112
:102A5000DDE90430020DDDF840B0034318D044F640
:102A60001050A2F2FF3242431514119801281FD0D2
:102A7000A5EB0B00401C5FEA000A4FF000064E4F2A
:102A8000DFF83891B046504615D5CAF1000413E07E
:102A9000119801244AA3012801D16FEA0B01029881
:102AA000119AC0E90031C0E9024206B0BDE8F09FCA
:102AB000CBF10000DFE704460021404A491842EB11
:102AC0000450CDE9001012E0E00707D032463B4643
:102AD00040464946FDF77CFD8046894632463B46E6
:102AE00010461946FDF774FD06460F466410002C8B
:102AF000EAD1DDE90401DDE90023BAF1000F06DACD
:102B0000FDF766FD42464B46FDF762FD05E0FDF729
:102B1000D1FD42464B46FDF7CDFD04460E46002250
:102B2000284BFDF74FFE03D84FF0FF30014607E07A
:102B30000022254B20463146FDF7A3FCFDF729FE78
:102B4000102409E0002C0ADB0A220023FDF731FCE7
:102B5000039B30321A55641E50EA0102F2D1641C04
:102B6000039AC4F111031444119A012A03D00122DB
:102B700008430DD10AE0084304D000204FF0110BA8
:102B8000119072E7A3EB0B056D1E0DE05B4504DDB4
:102B90004FF0000205F1010504E003DA4FF00002F6
:102BA000A5F10105002AECD002981199C0E9023183
:102BB000C0E9004579E70000000014400000F03F44
:102BC000300000000000F0430000E03F2DE9FF4F1F
:102BD00095B09B468946064600250FE2252877D109
:102BE00000242746F84A0121059400E0044316F822
:102BF000013F203B01FA03F01042F7D130782A2838
:102C000011D06FF02F033078A0F13002092A16D8C6
:102C1000059A44F0020402EB820203EB42021044E4
:102C2000761C0590EFE759F8042B0592002A03DA89
:102C3000504244F40054059044F00204761C30786D
:102C40002E2816D116F8010F44F004042A280DD0BE
:102C50006FF02F023078A0F13003092B09D807EB71
:102C6000870302EB4303C718761CF3E759F8047B8C
:102C7000761C30786C280FD006DC4C2817D06828DA
:102C80000DD06A2814D104E0742810D07A280FD10E
:102C90000DE044F400140AE044F4801401E044F42C
:102CA00040147278824202D104F58014761C761C9E
:102CB000307866280BD013DC582877D009DC002840
:102CC00075D04528F6D04628F4D047281AD19DE182
:102CD00018E0632835D0642879D0652812D195E1B1
:102CE000702873D008DC6728F1D069286FD06E286F
:102CF0000DD06F2806D1B5E073282CD0752875D07B
:102D0000782874D05A46179990476D1C75E1C4F322
:102D10000250022809D003280DD0D9F80010042849
:102D20000DD00D6009F1040967E1D9F80010EA1728
:102D3000C1E90052F6E7D9F800100D80F2E70D70F6
:102D4000F0E719F8041B8DF8001000208DF8010041
:102D5000EA46012003E059F804AB4FF0FF30610769
:102D60004FF0000102D40DE008F101018846B9429C
:102D70000FDA8045F8DB1AF808100029F4D108E0D2
:102D800008F1010188468142FADB1AF8081000298F
:102D9000F6D105985B46A0EB080721463846179AFE
:102DA00000F094FA284400EB080507E04DE029E123
:102DB0000DE01AF8010B5A4617999047B8F101082F
:102DC000F7D25B4621463846179A13E142E00A22C1
:102DD0000092C4F302524FF0000A022A08D059F8B8
:102DE00004CB032A4FEAEC710AD00DE029E02AE077
:102DF00009F1070121F00702F2E802C1914609E05A
:102E00000FFA8CFC4FEAEC71042A03D14FFA8CFCC8
:102E10004FEAEC71002907DA0A460021DCF1000CC8
:102E200061EB02012D2202E0220504D52B228DF850
:102E30000420012203E0E20701D02022F7E79046B8
:102E400059E00A2102E010220DE010214FF0000AA3
:102E500000910BE010224FF0000A44F00404082710
:102E6000009203E008224FF0000A0092C4F30252DD
:102E7000022A05D059F804CB0021032A08D009E022
:102E800009F1070121F00702F2E802C1914605E0CD
:102E90001FFA8CFC042A01D10CF0FF0C4FF0000843
:102EA000220728D5702806D0009B83F0100353EA30
:102EB0000A0305D00EE040228DF80420012208E02C
:102EC0005CEA010206D030228DF804208DF805005E
:102ED00002229046009B83F0080353EA0A030AD1BA
:102EE0005CEA010201D1620705D530228DF8042089
:102EF0004FF001087F1E582804D034A003900EA87C
:102F000002900DE036A0F9E753466046009AFDF7BF
:102F100050FA84460398825C0298401E0290027028
:102F20005CEA0100F0D1029806A9081A00F1200A13
:102F3000600702D524F4803400E00127574502DD04
:102F4000A7EB0A0000E0002000EB0A0100900598C2
:102F50004144401A0590E00306D45B462146179A87
:102F6000059800F0B3F90544002706E001A85A4689
:102F7000C05D179990476D1C7F1C4745F6DBE00349
:102F80000CD55B462146179A059800F09FF9054439
:102F900004E030205A46179990476D1C0099481E4E
:102FA00000900029F5DC08E0029802995A46007862
:102FB000491C0291179990476D1CBAF10001AAF1C2
:102FC000010AF1DC65E100000928010030313233EB
:102FD0003435363738396162636465660000000055
:102FE000303132333435363738394142434445463F
:102FF0000000000000F058F90544761C30780028E5
:103000007FF4ECAD19B02846BDE8F08F620700D41C
:10301000062709F1070222F0070CFCE80223E1462B
:1030200003F000485FEA080C02D00FF2702C0DE0AC
:103030005FEA045C02D50FF2682C07E05FEAC47C0B
:1030400002D00FF2602C01E0AFF2700C4FF0FF38AD
:1030500023F00043CDF850C065280CD006DC45288D
:1030600009D046281DD047283DD13DE0662818D01C
:1030700067287ED138E00021112F01DB112000E00C
:10308000781CCDE9000106A90EA8FFF7DDFCDDE9FB
:103090000F010E9A03910021009207F1010A049199
:1030A0004DE04FF000400097CDE9011006A90EA8B1
:1030B000FFF7CAFCDDE90F0203920E9B1199002273
:1030C000DDF80CA00093049211B9791C00EB010A01
:1030D000B7EB0A0004D4C0F1FF3007F1010A0490F5
:1030E000AAEB0700019044E0012F00DA012700213C
:1030F000112F01DD112000E03846CDE9000106A9BD
:103100000EA8FFF7A1FCDDE90F010E9A0391002143
:1031100004910092BA4621070CD40399514500DA74
:103120008A46BAF1010F05DD009AAAF10101515C4E
:10313000302908D0B84202DA10F1040F06DA012172
:10314000CDE9011015E0AAF10101E9E7002805DC4D
:10315000049901440491AAEB000102E0411C51458D
:1031600000DD8A460499401A401C01904FF000404F
:103170000290200704D40198504501DBCDF804806B
:1031800000208DF84F0002980DF14F07B0F1004F6D
:1031900025D02B200E9002984FF0020800280CDA60
:1031A000404202902D200E9007E00A210298FDF780
:1031B000EAF83031029007F8011DB8F10001A8F1DA
:1031C0000108F2DC02980028EFD1791E0E980870F1
:1031D000307800F0200040F0450007F8020D12A8FA
:1031E000C01B00F107081498007800B1012000EB23
:1031F0000A01019801EBE07105984144401A401E14
:103200000590E00306D45B462146179A059800F026
:103210005DF805441498007818B15A4617999047FC
:103220006D1CE00324D55B462146179A059800F0F3
:103230004DF805441CE00498002807DBDDE9030194
:10324000884203DD0098405C179901E0179930200F
:103250005A469047049805F10105401C04900198D6
:10326000401E019004D12E205A46179990476D1C9C
:10327000BAF10001AAF1010ADDDC05E017F8010B43
:103280005A46179990476D1CB8F10001A8F1010842
:10329000F4DC5B462146179A0598ABE62D0000004A
:1032A0002B000000200000002DE9F041044600251D
:1032B0001E461746880404D405E039462020B0474E
:1032C0006D1C641EF9D52846BDE8F0812DE9F0415A
:1032D000044600251E469046C80301D5302700E06D
:1032E0002027880404D505E041463846B0476D1CC8
:1032F000641EF9D52846BDE8F0810A68531C0B60AE
:1033000010707047322000E0401E0028FCD170474A
:103310002DE9F04100242B4800684FF47A71B0FB8E
:10332000F1F5B5F1807F00D311E025F07F40401E1C
:103330004FF0E02148610F214FF0FF30FEF770FEA3
:1033400000204FF0E02188610720086100BF00BF26
:103350001D480068C0F302200446204600221346A0
:103360000146C1F1070CBCF1040F02D94FF0040C67
:1033700001E0C1F1070C674601F1040CBCF1070F35
:1033800002D24FF0000C01E0A1F1030C66464FF0B1
:10339000010C0CFA07FCACF1010C0CEA020C0CFA63
:1033A00006FC4FF0010808FA06F8A8F1010808EA3F
:1033B00003084CEA080529464FF0FF30FEF730FEBF
:1033C000BDE8F0811C0900200CED00E010B50446BA
:1033D0002046FDF774FF10BD10B51448008800F4B6
:1033E000004008B300201149088011491148FEF738
:1033F00065FC1049D1F80500FCF799FF04460E4919
:10340000FCF757FF0D4988600A490868FCF78FFFF1
:1034100004460949FCF74DFF084908600548007952
:1034200008710448407A087310BD0000180000209D
:10343000500B0020A01D00200050C347901D00200D
:10344000F0B50020314DAD6945F401752F4EB561E1
:1034500035466D6825F44045756035466D6845F420
:10346000004575604FF46025294E356035462D685E
:1034700045F00105356035462D6845F00805356095
:1034800000BF234D2D6805F00805002DF9D1204D12
:103490002D6845F004051E4E356000BF1C4D2D689B
:1034A00005F00405002DF9D14FF4E035184E08362B
:1034B0003560002227E0164D2D6845F4A005144E16
:1034C000356000BF124D083D2D6805F00205002D46
:1034D000F8D00F4D44352D68A9B20A2591FBF5F6B9
:1034E00005FB1615ECB20A2591FBF5F50A2695FBAE
:1034F000F6F706FB17531D19EBB200EB80056800C9
:103500001844551CEAB2062AD5DBF0BD0010024073
:103510000824014001480068704700001C0000209A
:10352000FFF7F6FEFDF768FBFEF707FDFDF78EFFE0
:10353000FDF772FB00F01EFAFEF784F8FEF77AFF43
:10354000FEF716FBFEF75AFBFFF744FAFDF750FAB9
:1035500041F61F4140F2F310FFF70EF800F0EBF9CF
:103560000CE0FDF761FCFFF737FF0548806805496F
:103570004860034800688860FEF71CF9F1E7000026
:10358000901D002044090020F0B5C3B010498868A0
:10359000FCF7E6FE04460D460D494868FCF7E0FEE0
:1035A00006460C48007832460B460BA1CDE9004593
:1035B000029003A8FFF724FA03A8FCF7E9FD0446EC
:1035C000224603A9114800F04DF943B0F0BD0000B8
:1035D00044090020E00D00207B2273656E736F723A
:1035E00031223A2531302E36662C2273656E736F88
:1035F0007232223A2531302E36662C2273656E7374
:103600006F7233223A25647D00000000600F0020B5
:1036100010B5494800684949096888426CD0464855
:1036200000688078202828D143480068407906281F
:103630001ED2DFE800F003090D11151901204049E1
:1036400008704049487317E000203E49487313E072
:1036500000203C4948730FE000203A4948730BE0D2
:1036600000203849487307E000203649487303E0DA
:1036700000203449487300BF2FE02F48006880784D
:10368000902818D12C480068807901280ED12E4945
:10369000087000202D4908702D48FCF779FD04467C
:1036A00022462B492B4800F0DDF803E00020254995
:1036B000487300BF11E0204800688078D02803D10B
:1036C00001202249087008E01B48006880783028F3
:1036D00003D11948006800F087F81748006800F522
:1036E000C87015490860084600681B490968884287
:1036F00002D31A48104908601948007801281AD1E5
:1037000000201749087017A11848FCF72FFD40B199
:1037100000F011F900201649087016490870164982
:10372000C87016A11148FCF721FD20B100F003F983
:1037300001201049087010BDFC080020F808002086
:10374000E6080020F00D0020E7080020E80800202F
:103750006E180020600F00200009002018110020C2
:1037600018090020446973706C617900001C002006
:10377000040000200500002000000020416E746954
:103780005F74686566745F6D6F64650070B504464C
:103790000D462A4621460348FCF7C4FC0120024995
:1037A000087070BD001C00201809002070B5054687
:1037B0000C462046E11704EB1161090A094A117011
:1037C0002046E11704EB11610912A4EB01215170AD
:1037D000224629460348801CFCF7A4FC014800F05F
:1037E00099F870BD6E1A00202DE9F14FE4B04FF04A
:1037F000000A0120834604466498851C00BF15F822
:10380000048008F07F0000FB0BAA4FEACB1B641C6E
:1038100008F080000028F2D1601C295C285D01EBD3
:103820000020861CAAEB060706EB040905EB09013C
:103830003A466846FCF776FC39466846FFF7A6FF2D
:1038400065B0BDE8F08F000010B5C02004490870D5
:103850000020487002210248FFF7A8FF10BD0000B9
:10386000740F00202DE9F74F07461646012538460C
:10387000FCF78EFC00F10208B14608EB0904302089
:103880002349087013E02046E11704EB5161C91188
:10389000A4EBC11AE11704EB5161CC11002C01DD3E
:1038A0004AF0800A28466D1C194901F800A0002C36
:1038B000E9DC3846FCF76CFCC0F307201449485596
:1038C0003846FCF765FCC1B2114A681C11543846F1
:1038D000FCF75EFC83460E4AA91C50185A4639462E
:1038E000FCF720FC3846FCF753FCA91C08440849A7
:1038F00000EB010B324658460199FCF713FC05EB2F
:10390000080000EB09010248FFF750FFBDE8FE8FF9
:10391000740F002070B50446012505E0691C60188D
:10392000012100F065F96D1C6178207801EB002021
:10393000A842F3DA70BD70B5002418E004F1B000BD
:103940000021FEF72FFC00210846FEF72BFC00218A
:103950001020FEF727FC002505E001210020FEF7DE
:1039600021FC681CC5B2802DF7DB601CC4B2082C9A
:10397000E4DB70BD08B501210420FEF73BFC1020FC
:103980008DF8030003208DF802004FF48050ADF84D
:10399000000069464748FDF7FAFB4FF40060ADF8B8
:1039A000000069464348FDF7F2FB4FF4805141485F
:1039B000FDF783FC4FF400613E48FDF77EFC00BF3D
:1039C000AE2200217820FEF757FD0028F8D04FF4F2
:1039D000C870FDF740F90021AE20FEF7E3FB00219F
:1039E0000846FEF7DFFB00211020FEF7DBFB00217D
:1039F0004020FEF7D7FB0021B020FEF7D3FB0021CB
:103A00008120FEF7CFFB0021FF20FEF7CBFB00213A
:103A1000A120FEF7C7FB0021A620FEF7C3FB002173
:103A2000A820FEF7BFFB00213F20FEF7BBFB0021D3
:103A3000C820FEF7B7FB0021D320FEF7B3FB00211F
:103A40000846FEF7AFFB0021D520FEF7ABFB0021B7
:103A50008020FEF7A7FB0021D820FEF7A3FB002162
:103A60000520FEF79FFB0021D920FEF79BFB0021DC
:103A7000F120FEF797FB0021DA20FEF793FB0021EF
:103A80001220FEF78FFB0021DB20FEF78BFB0021CD
:103A90003020FEF787FB00218D20FEF783FB0021FD
:103AA0001420FEF77FFB0021AF20FEF77BFBFFF722
:103AB00042FF08BD000801402DE9F04180460E4656
:103AC0001546002731464046FEF7BEFA00240AE0BC
:103AD000124A02EBC511085D0121FEF763FB781C59
:103AE000C7B2601CC4B2102CF2DB701CC1B24046DD
:103AF000FEF7AAFA00240CE06900491C074A02EB11
:103B00008111085D0121FEF74DFB781CC7B2601CD6
:103B1000C4B2102CF0DBBDE8F081000008450008BD
:103B20002DE9F04104460F461546984600260FE061
:103B3000AA5D434639462046FEF79AFA04F108008A
:103B4000C4B2782C02DD0024B81CC7B2701CC6B207
:103B5000A85D0028ECD1BDE8F081000010B5FFF7AA
:103B6000D9FC19490968401A14282CD31648D0F8F2
:103B7000040140B31448011DD0F804211348006823
:103B8000801CFCF7CFFA1048B0F80401000A0F4976
:103B9000096808700C4890F804010C4909684870DD
:103BA0000A48006800F5C8700849086008460068BF
:103BB00007490968884202D3064804490860002082
:103BC0000149C1F8040110BD000E0020F8080020D2
:103BD000000900201811002000B54FF4807202493E
:103BE0000248FDF781FA00BD5009002000F00008EE
:103BF00010B50246002012E000BF0A4B1B8803F0FC
:103C00008003002BF9D0135C064C241D238000BFD9
:103C1000044B1B8803F04003002BF9D0401C884262
:103C2000EAD310BD0044004070B504460025284882
:103C30004078C8B92046FCF7ABFA86B23146204638
:103C4000FFF7D6FF012022494870FFF763FC2049A7
:103C500048604FF480711F48FCF77DFA00201D4931
:103C6000091FC1F8040131E01948407801282DD11D
:103C7000FFF750FC16494968401AB4F864108842AE
:103C800012D21448001FD0F8040102281ED304F1F8
:103C900050011048FCF76AFA0546BDB100200C49F6
:103CA00048700872012070BD00200949487008461C
:103CB000007A401C08720846007AB4F86610884200
:103CC00004DD0020024908720220ECE70020EAE748
:103CD000F00D0020040E002010B54FF48072024950
:103CE0000248FDF72EFA10BD5009002000F0000830
:103CF0000000000000000000002F0000000007008E
:103D0000070000147F147F1400242A7F2A12006207
:103D100064081323003649552250000005030000B3
:103D200000001C224100000041221C000014083E3B
:103D300008140008083E0808000000A06000000801
:103D40000808080800006060000000201008040255
:103D5000003E5149453E0000427F40000042615113
:103D60004946002141454B31001814127F100027AD
:103D700045454539003C4A49493000017109050370
:103D800000364949493600064949291E00003636A1
:103D90000000000056360000000814224100001404
:103DA00014141414000041221408000201510906E1
:103DB00000324959513E007C1211127C007F494962
:103DC0004936003E41414122007F4141221C007F93
:103DD00049494941007F09090901003E4149497AA1
:103DE000007F0808087F0000417F4100002040411B
:103DF0003F01007F08142241007F40404040007F87
:103E0000020C027F007F0408107F003E4141413ECA
:103E1000007F09090906003E4151215E007F091912
:103E200029460046494949310001017F0101003F0F
:103E30004040403F001F2040201F003F4038403F8F
:103E400000631408146300070870080700615149F3
:103E5000454300007F41410000552A552A55000086
:103E600041417F0000040201020400404040404004
:103E7000000001020400002054545478007F48449C
:103E8000443800384444442000384444487F0038D3
:103E90005454541800087E0901020018A4A4A47CFC
:103EA000007F080404780000447D400000408084C6
:103EB0007D00007F102844000000417F4000007C0E
:103EC00004180478007C080404780038444444381A
:103ED00000FC242424180018242418FC007C080466
:103EE000040800485454542000043F444020003C3F
:103EF0004040207C001C2040201C003C4030403CC6
:103F0000004428102844001CA0A0A07C0044645455
:103F10004C44141414141414000000000000000099
:103F20000000000000000000000000F80000000099
:103F3000000000333000000000100C06100C0600DA
:103F4000000000000000000040C07840C078400041
:103F5000043F04043F040400007088FC08300000A3
:103F6000001820FF211E0000F008F000E0180000FB
:103F700000211C031E211E0000F0088870000000B4
:103F80001E2123241927211010160E000000000006
:103F90000000000000000000000000E01804020023
:103FA000000000071820400000020418E000000094
:103FB0000040201807000000404080F08040400092
:103FC0000202010F01020200000000F000000000E8
:103FD0000101011F010101000000000000000000BC
:103FE00080B0700000000000000000000000000031
:103FF00000010101010101010000000000000000BA
:104000000030300000000000000000008060180454
:10401000006018060100000000E010080810E00031
:10402000000F102020100F00001010F800000000FA
:104030000020203F20200000007008080888700041
:1040400000302824222130000030088888483000C1
:104050000018202020110E000000C02010F80000E1
:1040600000070424243F240000F80888880808007A
:104070000019212020110E0000E01088881800008F
:10408000000F112020110E0000380808C838080061
:104090000000003F000000000070880808887000E1
:1040A000001C222121221C0000E010080810E00062
:1040B0000000312222110F00000000C0C0000000EB
:1040C0000000003030000000000000800000000010
:1040D0000000806000000000000080402010080008
:1040E00000010204081020004040404040404000D1
:1040F00004040404040404000008102040800000AC
:104100000020100804020100007048080808F000B0
:104110000000003036010000C030C828E810E00080
:104120000718272423140B000000C038E00000000B
:10413000203C23020227382008F888888870000075
:10414000203F202020110E00C03008080808380049
:10415000071820202010080008F808080810E000C0
:10416000203F202020100F0008F88888E808100061
:10417000203F20202320180008F88888E808100035
:10418000203F200003000000C0300808083800006D
:1041900007182020221E020008F808000008F8086E
:1041A000203F210101213F20000808F808080000F5
:1041B0000020203F2020000000000808F808080028
:1041C000C08080807F00000008F888C028180800A0
:1041D000203F20012638200008F8080000000000D9
:1041E000203F20202020300008F8F800F8F80800D0
:1041F000203F003F003F200008F830C00008F808CA
:10420000203F200007183F00E01008080810E000D9
:104210000F10202020100F0008F808080808F000F0
:10422000203F210101010000E01008080810E00013
:104230000F18242438504F0008F8888888887000A8
:10424000203F2000030C3020007088080808380048
:104250000038202121221C00180808F8080818003E
:104260000000203F2000000008F808000008F808BF
:10427000001F202020201F000878880000C8380870
:10428000000007380E010000F80800F80008F800E8
:10429000033C0700073C0300081868808068180882
:1042A00020302C03032C30200838C800C838080000
:1042B0000000203F2000000010080808C83808004F
:1042C0002038262120201800000000FE02020200F3
:1042D0000000007F40404000000C30C000000000A3
:1042E000000000010638C00000020202FE000000CB
:1042F000004040407F000000000004020202040071
:1043000000000000000000000000000000000000AD
:104310008080808080808080000202040000000095
:10432000000000000000000000008080808000008D
:104330000019242222223F2008F80080800000007B
:10434000003F112020110E0000000080808000003E
:10435000000E112020201100000000808088F8004D
:10436000000E112020103F2000008080808000007F
:10437000001F222222221300008080F088888818E3
:104380000020203F202000000000808080808000EE
:10439000006B94949493600008F800808080000083
:1043A000203F210000203F2000809898000000005E
:1043B0000020203F2020000000000080989800008E
:1043C00000C08080807F000008F8000080808000AE
:1043D000203F24022D302000000808F800000000D3
:1043E0000020203F2020000080808080808080008E
:1043F000203F20003F20003F808000808080000020
:10440000203F210000203F200000808080800000AD
:10441000001F202020201F008080008080000000DE
:1044200080FFA12020110E0000000080808080000D
:10443000000E112020A0FF808080800080808000FE
:1044400020203F212000010000008080808080002B
:104450000033242424241900008080E080800000A0
:104460000000001F202000008080000000808000ED
:10447000001F202020103F2080808000008080804E
:1044800000010E30080601008080008000808080DE
:104490000F300C030C300F00008080008080800003
:1044A0000020312E0E31200080808000008080802E
:1044B00080818E70180601000080808080808000DE
:1044C0000021302C2221300000000000807C0202FC
:1044D00000000000003F404000000000FF0000001E
:1044E00000000000FF0000000002027C80000000CD
:1044F0000040403F000000000006010102020404E9
:10450000000000000000000000004088180020505B
:104510004CB0A8880000000000000000000000006F
:10452000000000000000000000000000000000008B
:10453000000000000000000000000000000000007B
:1045400000000000000000000000300E0200010129
:1045500001001F204040700000000000000000002B
:10456000000000000000000000000000000000004B
:10457000000000000000000000000000000000003B
:1045800000000000000000000000000000E0301EFD
:10459000D490909000000000000000000000000097
:1045A000000000000000000000000000000000000B
:1045B00000000000000000000000000000000000FB
:1045C00000000000000000000000000809050505CB
:1045D0007F04040404040000000000000000000048
:1045E00000000000000000000000000000000000CB
:1045F00000000000000000000000000000000000BB
:1046000000000000000000000000F010F808484022
:1046100040C44C20202020000000000000000000CA
:10462000000000000000000000000000000000008A
:10463000000000000000000000000000000000007A
:10464000000000000000000000003F01001008040E
:104650002360211D03000000000000000000000096
:10466000000000000000000000000000000000004A
:10467000000000000000000000000000000000003A
:104680000000000000000000000000008850201022
:10469000FE90B018100000000000000000000000B4
:1046A000000000000000000000000000000000000A
:1046B00000000000000000000000000000000000FA
:1046C0000000000000000000000040433C463E2582
:1046D0003C24342D212220000000000000000000B6
:1046E00000000000000000000000000000000000CA
:1046F00000000000000000000000000000000000BA
:104700000000000000000000000000000000485809
:10471000E42424000000000000000000000000006D
:104720000000000000000000000000000000000089
:104730000000000000000000000000000000000079
:1047400000000000000000000000020202024161BF
:104750003F01010101010100000000000000000014
:104760000000000000000000000000000000000049
:104770000000000000000000000000000000000039
:1047800000000000000000000080808090909040B9
:104790004040FC2420E00000000000000000000079
:1047A0000000000000000000000000000000000009
:1047B00000000000000000000000000000000000F9
:1047C00000000000000000000000080E0544221454
:1047D0000C0320201C03000000000000000000006B
:1047E00000000000000000000000000000000000C9
:1047F00000000000000000000000000000000000B9
:104800000000000000000000004040E0BC2000D09C
:104810005C5058AE68080000000000000000000076
:104820000000000000000000000000000000000088
:104830000000000000000000000000000000000078
:1048400000000000000000000804033F00010424F1
:10485000150F0D15244200000000000000000000AC
:104860000000000000000000000000000000000048
:104870000000000000000000000000000000000038
:104880000000000000000000000000004040404C1C
:10489000F0202404000000000000000000000000E0
:1048A0000000000000000000000000000000000008
:1048B00000000000000000000000000000000000F8
:1048C000000000000000000000000012121609099C
:1048D00000030C18206060000000000000000000D1
:1048E00000000000000000000000000000000000C8
:1048F00000000000000000000000000000000000B8
:1049000000000000000000000000887004044074F3
:10491000C4349404FC00000000000000000000000B
:104920000000000000000000000000000000000087
:104930000000000000000000000000000000000077
:10494000000000000000000000003F00090B070904
:104950000907084C633C0000000000000000000054
:104960000000000000000000000000000000000047
:104970000000000000000000000000000000000037
:104980000000000000000000000080E01C04008027
:10499000907C54D0C0000000000000000000000027
:1049A0000000000000000000000000000000000007
:1049B00000000000000000000000000000000000F7
:1049C00000000000000000000001003F0000203E49
:1049D000352B293F2020202000000000000000008F
:1049E00000000000000000000000000000000000C7
:1049F00000000000000000000000000000000000B7
:104A0000000000000000000000808084CC0800C08E
:104A10003808BC4440000000000000000000000016
:104A20000000000000000000000000000000000086
:104A30000000000000000000000000000000000076
:104A40000000000000000000000000301F080022ED
:104A500025191E21604040000000000000000000F9
:104A60000000000000000000000000000000000046
:104A70000000000000000000000000000000000036
:104A800000000000000000000000000018A898646A
:104A90005C54545C040000000000000000000000B2
:104AA0000000000000000000000000000000000006
:104AB00000000000000000000000000000000000F6
:104AC000000000000000000000004040403F2B3785
:104AD00027392720202020000000000000000000CF
:104AE00000000000000000000000000000000000C6
:104AF00000000000000000000000000000000000B6
:104B000000000000000000000000202020A0FC00A9
:104B100000FEA090901000000000000000000000C7
:104B20000000000000000000000000000000000085
:104B30000000000000000000000000000000000075
:104B400000000000000000000000080405041F0031
:104B5000007F0404040400000000000000000000C6
:104B60000000000000000000000000000000000045
:104B70000000000000000000000000000000000035
:104B80000000000000000000000040C0081000000D
:104B900040FC202000000000000000000000000099
:104BA0000000000000000000000000000000000005
:104BB00000000000000000000000000000000000F5
:104BC00000000000000000000000180E0222121A6F
:104BD0001611110D39010100000000000000000055
:104BE00000000000000000000000000000000000C5
:104BF00000000000000000000000000000000000B5
:104C00000000000000000000000000000008C830A4
:104C1000C0000000000000000000000000000000D4
:104C20000000000000000000000000000000000084
:104C30000000000000000000000000000000000074
:104C40000000000000000000000010080403000045
:104C50000001060C18101000000000000000000009
:104C60000000000000000000000000000000000044
:104C70000000000000000000000000000000000034
:104C80000000000000000000000080E01C040000A4
:104C9000D8B8B4BCC48000000000000000000000D0
:104CA0000000000000000000000000000000000004
:104CB00000000000000000000000000000000000F4
:104CC00000000000000000000001003F000301237D
:104CD0002A1A1620604000000000000000000000BA
:104CE00000000000000000000000000000000000C4
:104CF00000000000000000000000000000000000B4
:104D000000000000000000000000C000FC201010A7
:104D1000202060E0202000000000000000000000D3
:104D20000000000000000000000000000000000083
:104D30000000000000000000000000000000000073
:104D400000000000000000000020100C03040C0014
:104D50000020603F00000000000000000000000094
:104D60000000000000000000000000000000000043
:104D70000000000000000000000000000000000033
:104D8000000000000000000000000000002000FC07
:104D900084A0909880000000000000000000000047
:104DA0000000000000000000000000000000000003
:104DB00000000000000000000000000000000000F3
:104DC000000000000000000000404021190D030019
:104DD0001F604040406038000000000000000000FC
:104DE00000000000000000000000000000000000C3
:104DF00000000000000000000000000000000000B3
:104E0000000000000000000000000040FC2020F82E
:104E10000828683C080000000000000000000000B6
:104E20000000000000000000000000000000000082
:104E30000000000000000000000000000000000072
:104E40000000000000000000000404227F01007F39
:104E5000222519173020200000000000000000006B
:104E60000000000000000000000000000000000042
:104E70000000000000000000000000000000000032
:104E80000000000000000000000020685C68DEB444
:104E9000946C38484840000000000000000000000A
:104EA0000000000000000000000000000000000002
:104EB00000000000000000000000000000000000F2
:104EC000000000000000000000000202022A6A6DDB
:104ED0005D731101010101000000000000000000ED
:104EE00000000000000000000000000000000000C2
:104EF00000000000000000000000000000000000B2
:104F000000000000000000000000404040C040FCE5
:104F10008040201800000000000000000000000099
:104F20000000000000000000000000000000000081
:104F30000000000000000000000000000000000071
:104F40000000000000000000000008080601207FAB
:104F5000000102060C040000000000000000000038
:104F60000000000000000000000000000000000041
:104F70000000000000000000000000000000000031
:104F8000000000000000000000008080486898AC2D
:104F9000A454B484040000000000000000000000DD
:104FA0000000000000000000000000000000000001
:104FB00000000000000000000000000000000000F1
:104FC000000000000000000000002022120E02FC81
:104FD00003040A113020200000000000000000003F
:104FE00000000000000000000000000000000000C1
:104FF00000000000000000000000000000000000B1
:105000000000000000000000000C120C00C0701036
:105010000808080810300000000000000000000030
:105020000000000000000000000000000000000080
:105030000000000000000000000000000000000070
:10504000000000000000000000000000000F183009
:1050500020202020301C0000000000000000000084
:105060000000000000000000000000000000000040
:105070000000000000000000000000000000000030
:10508000000000000000000000004008180008F8C0
:10509000A86868741800000000000000000000000C
:1050A0000000000000000000000000000000000000
:1050B00000000000000000000000000000000000F0
:1050C00000000000000000000000300E22203E2200
:1050D0001E122E221F12000000000000000000001F
:1050E00000000000000000000000000000000000C0
:1050F00000000000000000000000000000000000B0
:10510000000000000000000000000000F090B0F07F
:1051100056D82848000000000000000000000000F1
:10512000000000000000000000000000000000007F
:10513000000000000000000000000000000000006F
:1051400000000000000000000020100C4340402D33
:10515000131E2260404040000000000000000000DC
:10516000000000000000000000000000000000003F
:10517000000000000000000000000000000000002F
:10518000000000000000000000000000F80888088F
:10519000F824F40C000000000000000000000000F3
:1051A00000000000000000000000000000000000FF
:1051B00000000000000000000000000000000000EF
:1051C00000000000000000000020100E1108040381
:1051D000060C071830203800000000000000000016
:1051E00000000000000000000000000000000000BF
:1051F00000000000000000000000000000000000AF
:10520000000000000000000000000000807050D28C
:1052100054A8B88880800000000000000000000052
:10522000000000000000000000000000000000007E
:10523000000000000000000000000000000000006E
:1052400000000000000000000040300C1316287F12
:1052500001102A287F00000000000000000000006C
:10526000000000000000000000000000000000003E
:10527000000000000000000000000000000000002E
:1052800000000000000000000000403020E050144A
:1052900014D090103020000000000000000000003A
:1052A00000000000000000000000000000000000FE
:1052B00000000000000000000000000000000000EE
:1052C0000000000000000000000000424144243CB7
:1052D0002422232020200000000000000000000005
:1052E00000000000000000000000000000000000BE
:1052F00000000000000000000000000000000000AE
:10530000000000000000000000404040C40400F81D
:1053100088A8784444FC0000000000000000000061
:10532000000000000000000000000000000000007D
:10533000000000000000000000000000000000006D
:1053400000000000000000000000001F08241C03F3
:1053500002060507213F00000000000000000000D9
:10536000000000000000000000000000000000003D
:10537000000000000000000000000000000000002D
:105380000000000000000000000040080808F8A825
:10539000A858487C08000000000000000000000041
:1053A00000000000000000000000000000000000FD
:1053B00000000000000000000000000000000000ED
:1053C00000000000000000000000380620202C3DF6
:1053D00023213F24232020000000000000000000C3
:1053E00000000000000000000000000000000000BD
:1053F00000000000000000000000000000000000AD
:10540000000000000000000000000000002000FC80
:1054100084A09098800000000000000000000000C0
:10542000000000000000000000000000000000007C
:10543000000000000000000000000000000000006C
:10544000000000000000000000404021190D030092
:105450001F60404040603800000000000000000075
:10546000000000000000000000000000000000003C
:10547000000000000000000000000000000000002C
:105480000000000000000000000030C848F808C01C
:105490002018A4E49C0000000000000000000000B0
:1054A00000000000000000000000000000000000FC
:1054B00000000000000000000000000000000000EC
:1054C000000000000000000000203801020B100066
:1054D0000F15040308300000000000000000000069
:1054E00000000000000000000000000000000000BC
:1054F00000000000000000000000000000000000AC
:1055000000000000000000000000F010F808484013
:1055100040C44C20202020000000000000000000BB
:10552000000000000000000000000000000000007B
:10553000000000000000000000000000000000006B
:10554000000000000000000000003F0100100804FF
:105550002360211D03000000000000000000000087
:10556000000000000000000000000000000000003B
:10557000000000000000000000000000000000002B
:105580000000000000000000000000008850201013
:10559000FE90B018100000000000000000000000A5
:1055A00000000000000000000000000000000000FB
:1055B00000000000000000000000000000000000EB
:1055C0000000000000000000000040433C463E2573
:1055D0003C24342D212220000000000000000000A7
:1055E00000000000000000000000000000000000BB
:1055F00000000000000000000000000000000000AB
:105600000000000000000000000000000000C0BC1E
:105610000800000000000000000000000000000082
:10562000000000000000000000000000000000007A
:10563000000000000000000000000000000000006A
:10564000000000000000000000001008060100003B
:1056500001020C1810100000000000000000000003
:10566000000000000000000000000000000000003A
:10567000000000000000000000000000000000002A
:10568000000000000000000000008060980C004056
:10569000E2FCA0202000000000000000000000004C
:1056A00000000000000000000000000000000000FA
:1056B00000000000000000000000000000000000EA
:1056C0000000000000000000000100100F040201B3
:1056D000083F040106040000000000000000000074
:1056E00000000000000000000000000000000000BA
:1056F00000000000000000000000000000000000AA
:105700000000000000000000000000006050C07AAF
:105710002420242C080000000000000000000000ED
:105720000000000000000000000000000000000079
:105730000000000000000000000000000000000069
:1057400000000000000000000000201008062123D7
:10575000150D3320604040000000000000000000F4
:105760000000000000000000000000000000000039
:105770000000000000000000000000000000000029
:105780000000000000000000000000806090404227
:10579000FE4040000000000000000000000000008B
:1057A00000000000000000000000000000000000F9
:1057B00000000000000000000000000000000000E9
:1057C00000000000000000000020202120202422F2
:1057D0001F22221010102000000000000000000016
:1057E00000000000000000000000000000000000B9
:1057F00000000000000000000000000000000000A9
:10580000000000000000000000002030107014FCB8
:105810008ABA081808080000000000000000000014
:105820000000000000000000000000000000000078
:105830000000000000000000000000000000000068
:10584000000000000000000000202018067D552EFA
:10585000151D26226040000000000000000000002E
:105860000000000000000000000000000000000038
:105870000000000000000000000000000000000028
:1058800000000000000000000080808090909040A8
:105890004040FC2420E00000000000000000000068
:1058A00000000000000000000000000000000000F8
:1058B00000000000000000000000000000000000E8
:1058C00000000000000000000000080E0544221443
:1058D0000C0320201C03000000000000000000005A
:1058E00000000000000000000000000000000000B8
:1058F00000000000000000000000000000000000A8
:105900000000000000000000000020105030B054E3
:1059100008282808181810000000000000000000E7
:105920000000000000000000000000000000000077
:105930000000000000000000000000000000000067
:105940000000000000000000000000007F29554B0F
:105950003D25617F00000000000000000000000005
:105960000000000000000000000000000000000037
:105970000000000000000000000000000000000027
:1059800000000000000000000000000000E02022F5
:105990002424A0F02000000000000000000000000F
:1059A00000000000000000000000000000000000F7
:1059B00000000000000000000000000000000000E7
:1059C000000000000000000000000040300F010156
:1059D00001010000000000000000000000000000C5
:1059E00000000000000000000000000000000000B7
:1059F00000000000000000000000000000000000A7
:105A0000000000000000000000008000FC2020F0EA
:105A100090D0B01058B0000000000000000000005E
:105A20000000000000000000000000000000000076
:105A30000000000000000000000000000000000066
:105A400000000000000000000020110E0504003FCF
:105A500014131212103F00000000000000000000AC
:105A60000000000000000000000000000000000036
:105A70000000000000000000000000000000000026
:105A80000000000000000000000070105030D4BC86
:105A900094D8080818000000000000000000000072
:105AA00000000000000000000000000000000000F6
:105AB00000000000000000000000000000000000E6
:105AC00000000000000000000000100A4A351D56CA
:105AD000CB3C140C0808000000000000000000008F
