:020000040800F2
:10000000780A0020F50C00081D0800081F080008E9
:1000100023080008270800082B080008000000003B
:100020000000000000000000000000002F08000891
:1000300031080008000000003308000835080008F7
:100040000F0D00080F0D00080F0D00080F0D000820
:100050000F0D00080F0D00080F0D00080F0D000810
:100060000F0D00080F0D00080F0D00080F0D000800
:100070000F0D00080F0D00080F0D00080F0D0008F0
:100080000F0D00080F0D00080F0D00080F0D0008E0
:100090000F0D00080F0D00080F0D00080F0D0008D0
:1000A0000F0D00080F0D00080F0D00080F0D0008C0
:1000B0000F0D00080F0D00080F0D00080F0D0008B0
:1000C0000F0D00080F0D00080F0D00080F0D0008A0
:1000D0000F0D0008690C00080F0D00080F0D000837
:1000E0000F0D00080F0D00080F0D00080F0D000880
:1000F0000F0D00080F0D00080F0D00080F0D000870
:100100000F0D00080F0D00080F0D00080F0D00085F
:100110000F0D00080F0D00080F0D00080F0D00084F
:100120000F0D00080F0D00080F0D00080F0D00083F
:1001300000F002F800F063F80AA090E8000C824496
:100140008344AAF10107DA4501D100F058F8AFF273
:10015000090EBAE80F0013F0010F18BFFB1A43F0A5
:1001600001031847FC3C00001C3D000010F8013B57
:100170000A4413F0030408BF10F8014B1D1108BF17
:1001800010F8015B641E05D010F8016B641E01F8C5
:10019000016BF9D1002D15D010F8014B03F00C03C1
:1001A0000C2BA1EB04040ABF10F8013BA4EB831451
:1001B000A4EB032405F1010314F8016B5B1E01F8A5
:1001C000016BF9D5914238BF10F8013BD1D370478C
:1001D0000023002400250026103A28BF78C1FBD850
:1001E000520728BF30C148BF0B607047642902F036
:1001F000AF83002070471FB51FBD10B510BD02F0C2
:1002000020FD1146FFF7F7FF00F0D6F802F03EFDA3
:1002100003B4FFF7F2FF03BC00F0D4FC08B50121E2
:10022000082001F011F910208DF803004FF4C040B0
:10023000ADF8000003208DF802006946F74800F091
:1002400047FE4FF40051F54800F0EFFE4FF48041B7
:10025000F24800F0EAFE08BD08B50121082001F0CF
:10026000F3F840F23E40ADF8000048208DF803005E
:100270006946EA4800F02CFE08BD00BF0100A0F16D
:100280000100FBD1704708B50121102001F0DCF816
:100290003F20ADF8000010208DF8030003208DF8FA
:1002A00002006946DE4800F013FE0121DC4800F040
:1002B000BCFE0221DA4800F0B8FE0421D84800F064
:1002C000B4FE0821D64800F0B0FE1021D44800F05A
:1002D000ACFE2021D24800F0A8FE08BD00B585B0D4
:1002E0000121042001F0B0F80121880301F0ACF8ED
:1002F0004FF40070ADF8100018208DF813000320A3
:100300008DF8120004A9C74800F0E2FD4FF48060A8
:10031000ADF8100004208DF8130004A9C14800F0C6
:10032000D7FD4FF4165000900020ADF80400ADF852
:100330000600ADF80800ADF80C000C20ADF80A007E
:100340006946B94801F027F90121B74801F0AFF932
:1003500005B000BD08B54FF4E06000F0EBFC2520CF
:100360008DF8000001208DF8010000208DF80200BA
:1003700001208DF80300684600F0E1FC08BD70B56F
:1003800004460D46E1B2A84801F0FEF900BF802105
:10039000A54801F067FA0028F9D0204670BD10B5D5
:1003A000044600BF2021A04801F05CFA0028F9D0E3
:1003B0009D4801F0EDF910BD9EB04FF0000B1F24D9
:1003C00000BF00BF00BF00BF00201B901A90642137
:1003D00001A802F095FB01F080FD00F01DFBFFF786
:1003E00052FFFFF739FFFFF719FF02F00AFA00206A
:1003F00000F053FFFFF772FFF1E11AA91BA802F00A
:10040000D4F98A48008800287ED1BBF1000F03D1BF
:100410004FF0010B01F061FD85A101A802F05CFA2B
:1004200001AA0021142001F0E0FE85A101A802F03C
:1004300053FA01AA0221002001F0D7FE9DF86C209A
:1004400081A101A802F048FA01AA02212D2001F0A1
:100450008BFE012000F022FB1C901C9802F055FC42
:1004600007467B4A7B4B02F063FC054602F020FC0A
:100470001FFA80FA78A101A802F02EFA01AA04213D
:10048000002001F071FE524674A101A802F024FA86
:1004900001AA0421142001F067FE002000F0FEFAFA
:1004A0001D901D9802F031FC0546694A694B02F027
:1004B0003FFC074602F0FCFB1FFA80F969A101A886
:1004C00002F00AFA01AA0421412001F04DFE4A4639
:1004D00062A101A802F000FA01AA0421552001F04E
:1004E00043FE04214D4800F086FD80B904214B48AD
:1004F00000F081FD10B901205B49088000BF042194
:10050000464800F078FD00E0E4E00028F7D05649C6
:10051000B1F9000000EBD0714910A0EB41010129B5
:100520007AD152A101A802F0D7F901AA06214120EF
:1005300001F05BFE01204F49086000204E49C1F8E0
:1005400084012021354800F056FD88B92021334828
:1005500000F051FD28B949480088401C00B24749C5
:10056000088000BF20212D4800F045FD0028F9D06B
:100570004FF48061294800F03EFD98B94FF4806146
:10058000264800F038FD28B93D480088401C00B2DC
:100590003B49088000BF4FF48061204800F02BFDEC
:1005A0000028F8D09DF86C20A24213DC334AB2F93F
:1005B000001001EBD1725210A1EB4202012A09D0C6
:1005C0002F4AB2F9000000EBD0725210A0EB4202A9
:1005D000012A07D100202749083108602649C1F8BF
:1005E000900106E001202349083108602249C1F842
:1005F00090012349B1F9000000EBD0714910A0EB44
:100600004101012944D11FA101A802F065F901AA05
:100610000621002001F0E9FD43E00000000C01404C
:100620000010014000080140003801400400002093
:10063000C6FBB3B5B7C0B5C1CFB5CDB300000000A0
:10064000CEC2B6C8A3BA0000256420430000000053
:100650007B14AE47E17A943F453A0000253032647E
:10066000000000004E3A000002000020CEDEC8CBA1
:100670000000000080012242000022420800002009
:100680000A000020B7A2C9FAD5F0B6AF00000000FA
:1006900053A101A802F020F901AA0621002001F0CF
:1006A00063FD5249B1F9000000EBD0714910A0EB95
:1006B000410179B94BA101A802F00EF901AA062166
:1006C000412001F051FD00204949086001204949BD
:1006D000C1F884014848008801285DD1BBF1000FB2
:1006E0000ED183464249103108604249C1F8800169
:1006F0003F49091D08603F49C1F8880101F0EDFB41
:100700003EA101A802F0E8F801AA00211E2001F094
:100710006CFD3DA101A802F0DFF801AA02210A2028
:1007200001F063FD2246AFF2E00101A802F0D4F827
:1007300001AA0221502001F017FD36A101A802F004
:10074000CBF801AA0221002001F00EFD0821324859
:1007500000F051FC68B908212F4800F04CFC08B9A2
:10076000601C84B200BF08212B4800F044FC002824
:10077000F9D01021284800F03EFC68B91021264825
:1007800000F039FC08B9601E84B200BF1021224875
:1007900000F031FC0028F9D002211F4800F02BFCAA
:1007A000E8B902211C4800F026FC88B912480088EC
:1007B000401C00B2104908800846B0F9000001282A
:1007C00001DD002008804FF0000B00200749088061
:1007D00000BF0221104800F00EFC0028F9D00CE602
:1007E00020202020202020200000000002000020E7
:1007F000800122420000224204000020E3D0D6B54E
:10080000C9E8D6C300000000CEC2B6C8C9CFCFDE4B
:10081000A3BA00002A000000000C0140704700BF8E
:10082000FEE700BFFEE700BFFEE700BFFEE7704740
:1008300070477047704700000CB500200190009091
:100840006C48006840F480306A49086000BF69481D
:10085000006800F4003000900198401C019000985E
:1008600018B90198B0F5A06FF1D16248006800F4A2
:10087000003010B10120009001E0002000900098AD
:10088000012843D15C48006840F010005A490860D4
:100890000846006820F0030008600846006840F041
:1008A0000200086053484068524948600846406862
:1008B00048600846406840F48060486008464068E8
:1008C00020F47C1048600846406840F4E810486016
:1008D0000846006840F08070086000BF4548006826
:1008E00000F000700028F9D04248406820F0030072
:1008F000404948600846406840F00200486000BF38
:100900003C48406800F00C000828F9D10CBD10B537
:10091000FFF792FF10BD10B53648006840F00100A7
:100920003449086008464068344908403149486005
:1009300008460068324908402E49086008460068A9
:1009400020F4802008600846406820F4FE004860DB
:100950004FF41F008860FFF7DAFF4FF0006029496D
:10096000086010BD10B5002100200022214B5B68FB
:1009700003F00C0121B1042906D0082928D107E091
:10098000214B224C236027E01F4B204C236023E0A7
:10099000184B5B6803F47010164B5B6803F48032ED
:1009A000022303EB904022B9194B4343174C2360B9
:1009B0000DE0104B5B6803F4003323B1144B434349
:1009C000124C236003E0104B4343104C236003E0C0
:1009D0000D4B0E4C236000BF00BF064B5B68C3F39A
:1009E00003130C4CE15C094B1B68CB40074C2360A4
:1009F00010BD000000100240002002400000FFF87F
:100A0000FFFFF6FE08ED00E000127A00180000205B
:100A100000093D001C00002000B587B001214FF403
:100A2000017000F011FD4FF4004000F071FC0F2048
:100A3000ADF8180000208DF81B0003208DF81A0077
:100A400006A9294800F044FA284800F065FF002074
:100A5000019001208DF808008DF809004FF4602006
:100A600003900020049001208DF8140001A91F4874
:100A700000F079FF01211D4800F0A1FF1B4800F0A4
:100A8000C0FF4FF4967000F070F8184800F0C8FFEF
:100A90004FF4967000F069F807B000BD10B5044639
:100AA000072301222146114800F0F5FF00BF022173
:100AB0000E4801F035F90028F9D00C4801F052F841
:100AC00010BD10B5072301220221084800F0E3FF02
:100AD00000BF0221054801F023F90028F9D003489E
:100AE00001F040F810BD0000000801400024014062
:100AF00010B56FF0040000F06CF92E4800682E4924
:100B0000B0FBF1F02D4908700846007800EB400179
:100B1000C1EBC0104FF6FF7101EAC0002849088000
:100B200010BD0146254A12784A434FF0E0235A612E
:100B300000229A611A46126942F001021A6100BF4E
:100B40004FF0E022106900F001021AB100F4803287
:100B5000002AF5D04FF0E022126922F001024FF096
:100B6000E0231A6100229A6170470146144A1288F4
:100B70004A434FF0E0235A6100229A611A461269F3
:100B800042F001021A6100BF4FF0E022106900F04C
:100B900001021AB100F48032002AF5D04FF0E022B1
:100BA000126922F001024FF0E0231A6100229A61DB
:100BB000704700001800002000127A002C0000206E
:100BC0002E000020014600BF704710B586B00446D5
:100BD000012144F2040000F037FC424800F098FC88
:100BE0004FF40070ADF8140003208DF816001820A3
:100BF0008DF8170005A93C4800F06AF94FF48060B1
:100C0000ADF8140004208DF8170005A9364800F04F
:100C10005FF925208DF8000003208DF801008DF884
:100C2000020001208DF80300684600F088F8019466
:100C30000020ADF80800ADF80A00ADF80C00ADF8E2
:100C400010000C20ADF80E0001A9264800F0A3FC0E
:100C5000012240F22551234800F035FD01212148B1
:100C600000F025FD06B010BD10B540F225511D481D
:100C700000F00EFE10B31B4800F08AFDC4B21B4802
:100C8000008800F40040C8B91848008800F480408B
:100C900060B10A2C03D000201449088020E01348DA
:100CA000008840F400401149088019E00D2C06D15D
:100CB0000E48008840F480400C49088010E00B4842
:100CC0000088C0F30D000A490C5408480088401CF5
:100CD0000649088008460088C72801DD00200880F2
:100CE00010BD000000380140000801403400002021
:100CF0004C0300200948804709480047FEE7FEE70B
:100D0000FEE7FEE7FEE7FEE7FEE7FEE7FEE7FEE7BB
:100D100004480549054A064B7047000017090008BA
:100D20003101000878040020780A002078060020AD
:100D30007806002031490143314A1160704770B58F
:100D4000002100230F22C47804B32D4C246804F43E
:100D5000E064C4F5E064210AC1F10403CA404478A8
:100D600004FA03F18478144021430901254C0678E4
:100D7000A155047804F01F050124AC4005786D11DD
:100D8000AD0005F1E025C5F8004109E0047804F064
:100D90001F050124AC401C4D0678761145F826400D
:100DA00070BD1A4A0A400243154B1B1F1A60704758
:100DB00039B1134A121D12680243114B1B1D1A60F0
:100DC00006E00F4A121D126882430D4B1B1D1A606C
:100DD0007047042808D14FF0E021096941F004016F
:100DE0004FF0E022116107E04FF0E021096921F0A6
:100DF00004014FF0E0221161704700000000FA0585
:100E00000CED00E000E400E080E100E080FFFF1F67
:100E100010B50446CC48844208D10121042000F0DA
:100E20002DFB0021042000F029FB46E0C748844246
:100E300008D10121082000F021FB0021082000F04A
:100E40001DFB3AE0C248844208D10121102000F085
:100E500015FB0021102000F011FB2EE0BD4884425C
:100E600008D10121202000F009FB0021202000F002
:100E700005FB22E0B848844208D10121402000F05F
:100E8000FDFA0021402000F0F9FA16E0B348844250
:100E900008D10121802000F0F1FA0021802000F02B
:100EA000EDFA0AE0AE48844207D10121801500F036
:100EB000E5FA0021A01500F0E1FA10BD10B50121FE
:100EC000084600F0DBFA0021012000F0D7FA10BD3F
:100ED0002DE9F041024600250026002000230024D1
:100EE000002791F803C00CF00F0591F803C00CF037
:100EF000100CBCF1000F03D091F802C04CEA0505BC
:100F000091F800C0BCF1000F31D0146800202BE034
:100F10004FF0010C0CFA00F3B1F800C00CEA030624
:100F20009E4220D183004FF00F0C0CFA03F7BC4314
:100F300005FA03FC4CEA040491F803C0BCF1280F45
:100F400006D14FF0010C0CFA00FCC2F814C00AE004
:100F500091F803C0BCF1480F05D14FF0010C0CFA19
:100F600000FCC2F810C0401C0828D1D31460B1F8AE
:100F700000C0BCF1FF0F34DD546800202EE000F10A
:100F8000080C4FF0010808FA0CF3B1F800C00CEAA5
:100F900003069E4221D183004FF00F0C0CFA03F799
:100FA000BC4305FA03FC4CEA040491F803C0BCF10D
:100FB000280F05D100F1080C08FA0CF8C2F81480CB
:100FC00091F803C0BCF1480F07D100F1080C4FF0B5
:100FD000010808FA0CF8C2F81080401C0828CED38B
:100FE0005460BDE8F0814FF6FF71018002218170ED
:100FF0000421C17070470246002093680B400BB17A
:10100000012000E0002070470146886880B27047E8
:1010100002460020D3680B400BB1012000E0002005
:1010200070470146C86880B27047016170474161EE
:1010300070470AB1016100E041617047C1607047CB
:101040004FF480320A4382618161826182698269E0
:10105000704702460020434B18684FF680731840D3
:1010600040EA021008433F4B186070473E49C86190
:101070007047F0B50A46002300240021002500F047
:101080000046B6F1004F02D1364EF16901E0354E0F
:101090007168C0F3034583B200F44016B6F5401FF3
:1010A00008D121F070612F4E766826F070662D4FC2
:1010B0007E6012E000F48016B6F5801F06D103268C
:1010C00006FA05F4A14341F0706106E0460D3601D1
:1010D00003FA06F6B14341F0706122B1460D3601C4
:1010E00003FA06F6314300F00046B6F1004F02D194
:1010F0001C4EF16101E01B4E7160F0BD30B5002265
:101100008B071C0F0F2303FA04F2164B08338C10C5
:1011100053F824309343134C08348D1044F8253091
:1011200023468C1053F824308C07240F00FA04F463
:1011300023430C4C08348D1044F8253030BD0A4947
:10114000DC3108607047000000080140000C0140DD
:10115000001001400014014000180140001C014033
:10116000002001400000014000002042DF480068EC
:1011700040F00100DD49086008464068DC4908404D
:10118000DA49486008460068DA490840D7490860EB
:101190000846006820F4802008600846406820F473
:1011A000FE0048604FF41F0088607047CF4909680F
:1011B00021F48031CD4A11601146096821F4802163
:1011C0001160B0F5803F03D0B0F5802F0ED106E05E
:1011D000C649096841F48031C44A116007E0C34937
:1011E000096841F4A021C14A116000E000BF00BFBE
:1011F000704710B501460022002300204A11012A41
:1012000002D1BA4C236806E0022A02D1B74C236A05
:1012100001E0B64C636A01F01F02012494401C40B7
:101220000CB1012000E0002010BD38B50020009076
:101230000024002500BF3120FFF7DBFF05460098A2
:10124000401C00900098B0F5A06F01D0002DF2D0A6
:101250003120FFF7CEFF08B1012400E00024204632
:1012600038BD01460020A14A106820F0F80040EA8D
:10127000C10010607047A049086070470246002016
:101280009A4B586820F47C1042EA01031843974BAC
:101290005860704798490866704701460020934A95
:1012A000506820F003000843506070478F48406842
:1012B00000F00C007047014600208C4A506820F076
:1012C000F00008435060704701460020874A50688C
:1012D00020F4E06008435060704701460020834AD4
:1012E000506820F4605040EAC1005060704729B156
:1012F0007E4A527A02437D4B5A7204E07B4A527A0C
:1013000082437A4B5A7270477B49D83108607047E4
:1013100001460020754A506820F440400843506060
:1013200070470021714A20321170704A82F82010F3
:10133000012802D004280AD104E001216B4A20329E
:10134000117005E00521694A2032117000E000BFEC
:1013500000BF70476949086070476449096A0143E2
:10136000624A11627047654944390860704730B578
:1013700000210022002400235C4D6D6805F00C0163
:1013800021B1042905D0082923D105E05C4D056071
:1013900022E05B4D05601FE0544D6D6805F470124E
:1013A000524D6D6805F48034022505EB92421CB95C
:1013B000544D554305600BE04C4D6D6805F4003508
:1013C0001DB1504D5543056002E04D4D554305603C
:1013D00002E04B4D056000BF00BF444D6D6805F055
:1013E000F0010909484D6B5C0568DD4045603F4DE3
:1013F0006D6805F4E061090A434D6B5C4568DD40AA
:1014000085603A4D6D6805F46051C90A3E4D6B5CCC
:101410004568DD40C560354D6D6805F44041890B78
:101420003A4D6B5CC568B5FBF3F5056130BD29B17C
:101430002E4A526902432D4B5A6104E02B4A5269ED
:1014400082432A4B5A61704729B1284A9269024364
:10145000264B9A6104E0254A92698243234B9A61A4
:10146000704729B1214AD2690243204BDA6104E076
:101470001E4AD26982431D4BDA61704729B11B4A6B
:10148000D2680243194BDA6004E0184AD2688243FA
:10149000164BDA60704729B1144A12690243134BA4
:1014A0001A6104E0114A12698243104B1A617047B5
:1014B00012494039086070470F49C86470470B49AA
:1014C000C87170470948406A40F080700749486217
:1014D000704701460020054A92680A400AB101207F
:1014E00000E00020704701498872704700100240F8
:1014F0000000FFF8FFFFF6FE000042428004424277
:1015000000127A0000093D0036000020460000204D
:1015100010B50446FB48844209D101218803FFF736
:10152000ADFF00214FF48040FFF7A8FF32E0F648FE
:10153000844209D101214804FFF7ADFF00214FF497
:101540000030FFF7A8FF25E0F048844209D10121CF
:101550008804FFF7A0FF00214FF48020FFF79BFFD6
:1015600018E0EB48844209D10121C804FFF793FF3A
:1015700000214FF40020FFF78EFF0BE0E548844286
:1015800008D101210805FFF786FF00214FF48010E4
:10159000FFF781FF10BD2DE9F04786B005460E46E6
:1015A0000024A24600BFA1460027B08900B100BFB9
:1015B0002F462C8A4CF6FF700440F08804432C829E
:1015C000AC894EF6F3100440B08831890843718924
:1015D00008430443AC81AC8A4FF6FF400440B08915
:1015E0000443AC8201A8FFF7C2FEC648874202D17D
:1015F000DDF810A001E0DDF80CA0A88900F400409F
:1016000040B10AEBCA0000EB0A1031684900B0FB98
:10161000F1F807E00AEBCA0000EB0A103168890014
:10162000B0FBF1F86420B8FBF0F00401200964215C
:1016300001FB1089A88900F4004040B1322000EB82
:10164000C900B0FBF1F000F00700044308E03220CD
:1016500000EB09106421B0FBF1F000F00F0004432F
:101660002C8106B0BDE8F0874FF4165101600021CF
:101670008180C18001810C214181002181817047DD
:1016800010B502460020108A4FF2FF0318400B8865
:101690004C8823438C882343CC88234318431082EF
:1016A00010BD0021018041808180C180704721B13F
:1016B000828942F40052828104E082894DF6FF73F0
:1016C0001A4082817047F0B50346002400260025A9
:1016D000002040F66A17B94200D100BF1846C1F396
:1016E000421401F01F06012707FA06F5012C01D16B
:1016F0000C3004E0022C01D1103000E014301AB19B
:1017000007682F43076002E00768AF430760F0BD3A
:101710001AB1838A0B43838202E0838A8B438382DC
:101720007047028A4FF6F0731A400282028A0A4317
:101730000282704782894FF2FF731A408281828948
:101740000A438281704721B1828942F0020282817C
:1017500004E082894FF6FD731A4082817047028A45
:101760004FF6DF731A400282028A0A4302827047F0
:1017700021B1028A42F48042028204E0028A4BF6DE
:10178000FF731A4002827047C1F3080282807047DB
:1017900001468888C0F308007047818941F0010143
:1017A00081817047028BD2B20283028B42EA01220E
:1017B00002837047028B02F47F420283028B0A434A
:1017C0000283704721B1828A42F02002828204E0C3
:1017D000828A4FF6DF731A408282704721B1828A73
:1017E00042F01002828204E0828A4FF6EF731A40C0
:1017F0008282704721B1828A42F00802828204E02C
:10180000828A4FF6F7731A408282704721B182892B
:1018100042F40042828103E08289C2F30E02828197
:10182000704721B1828A42F40062828204E0828A97
:101830004FF2FF731A4082827047828A4FF6FB7321
:101840001A408282828A0A438282704721B1828A48
:1018500042F00202828204E0828A4FF6FD731A404F
:101860008282704702460020B1F5007F00D100BFA0
:1018700013880B400BB1012000E00020704701F4F9
:101880000072B2F5007F00D100BFCA4302807047EA
:1018900070B50246002400230025002040F66A1699
:1018A000B14200D100BFC1F3421501F01F03012670
:1018B00006FA03F3012D02D19689334006E0022D8A
:1018C00002D1168A334001E0968A33400C12012679
:1018D00006FA04F41688344013B10CB1012000E07C
:1018E000002070BD10B50022002340F66A14A1420A
:1018F00000D100BF0A1201249440A3B2DC4304804B
:1019000010BD000000380140004400400048004085
:10191000004C00400050004010B50446FA48844294
:1019200008D101214015FFF7A9FD00216015FFF73F
:10193000A5FD17E0F548844208D101210015FFF705
:101940009DFD00212015FFF799FD0BE0F048844232
:1019500008D10121C803FFF791FD00214FF4004099
:10196000FFF78CFD10BD30B5024600200023506803
:10197000E84C20400D790C6844EA0524204350606F
:101980009068E54C2040D1E902542C434D7944EA5B
:10199000450420439060D06A20F470000C7C641EE3
:1019A000E4B2234340EA0350D06230BD002101601D
:1019B000017141718160C16001210174704721B1E1
:1019C000826842F00102826003E0826822F0010234
:1019D0008260704721B1826842F48072826003E0C5
:1019E000826822F480728260704710B50023CBB207
:1019F0001AB144681C43446002E044689C4344605C
:101A000010BD816841F008018160704701460020E7
:101A10008A6802F008020AB1012000E00020704745
:101A2000816841F0040181607047014600208A68A6
:101A300002F004020AB1012000E00020704721B149
:101A4000826842F4A002826003E0826822F4A0026D
:101A500082607047014600208A6802F480020AB161
:101A6000012000E00020704710B50A460021002345
:101A7000416821F46041531E41EA4331416010BD89
:101A800021B1426842F40062426003E0426822F4FD
:101A9000006242607047F0B504460D460020002108
:101AA000092D11DDE068A5F10A0606EB46070726B9
:101AB00006FA07F18843A5F10A0606EB460603FA83
:101AC00006F10843E0600CE0206905EB45070726B6
:101AD00006FA07F1884305EB450603FA06F10843C9
:101AE0002061072A0FDA606B561E06EB86071F2659
:101AF00006FA07F18843561E06EB860605FA06F13C
:101B00000843606322E00D2A0FDA206BD61F06EB34
:101B100086071F2606FA07F18843D61F06EB8606BE
:101B200005FA06F10843206310E0E06AA2F10D0611
:101B300006EB86071F2606FA07F18843A2F10D0679
:101B400006EB860605FA06F10843E062F0BD21B116
:101B5000826842F48012826003E0826822F480127C
:101B6000826070470146C86C80B2704766484C304E
:101B70000068704721B1426842F48062426003E02D
:101B8000426822F480624260704721B1426842F4A8
:101B90008052426003E0426822F480524260704703
:101BA0000A460021816821F4E041114381607047B9
:101BB00021B1826842F40042826003E0826822F42C
:101BC00000428260704721B1826842F40212826052
:101BD00003E0826822F4021282607047014600200E
:101BE0008A6802F400120AB1012000E00020704768
:101BF000F0B504461546002000220026092911DD13
:101C0000E068A1F10A0707EB470C072707FA0CF277
:101C10009043A1F10A0707EB470703FA07F21043C5
:101C2000E0600CE0206901EB410C072707FA0CF299
:101C3000904301EB410703FA07F210432061A06BC8
:101C4000C0F30156EF1C06F1010CA7EB0C0707EBE4
:101C5000870C1F2707FA0CF29043EF1C06F1010CCA
:101C6000A7EB0C0707EB870701FA07F21043A06305
:101C7000F0BD10B50A4600210023816B21F440110C
:101C8000531E41EA0351816310BD08B50023009340
:101C90000090009B0B440093009B1A6008BD08B5A0
:101CA000024600200090009201F12800009B184499
:101CB00000900098006880B208BD0A460021416883
:101CC000164B194011434160704741628262704770
:101CD0000A460021416821F01F011143416070470D
:101CE00040B109490831096841F40001064A083247
:101CF000116007E004490831096821F40001024A33
:101D000008321160704700000024014000280140A3
:101D1000003C0140FFFEF0FFFDF7F1FFFFFD3FFF3C
:101D20000246002013680B400BB1012000E00020A8
:101D30007047CA430260704770B502460020002316
:101D400000240B125568CEB205EA060415681D4042
:101D500015B10CB1012000E0002070BD00220A1274
:101D6000D34303607047000070B504460825012284
:101D70004021FB48FFF75DF90022A901F848FFF771
:101D800058F91BE004F0800028B101221102F44848
:101D9000FFF74FF905E000224FF48071F048FFF79C
:101DA00048F901225102EE48FFF743F900224FF4AF
:101DB0000071EB48FFF73DF96006040E2800A5F11D
:101DC0000101CDB2DED170BD70B5044608250022F8
:101DD0004021E348FFF72DF90022A901E048FFF771
:101DE00028F91BE004F0800028B101221102DC4830
:101DF000FFF71FF905E000224FF48071D848FFF784
:101E000018F901225102D648FFF713F900224FF4C6
:101E10000071D348FFF70DF96006040E2800A5F104
:101E20000101CDB2DED170BD70B504460D4605F19D
:101E3000B001C8B2FFF7C8FF102141EA1410FFF744
:101E4000C3FF04F00F0141F00100FFF7BDFF70BDBB
:101E500070B50646002415E004F1B001C8B2FFF7E2
:101E6000B3FF0120FFF7B0FF1020FFF7ADFF002503
:101E700004E03046FFF778FF681CC5B2822DF8DB1E
:101E8000601CC4B2082CE7DB70BD70B5002415E0FF
:101E900004F1B001C8B2FFF797FF0120FFF794FFEC
:101EA0001020FFF791FF002504E00020FFF75CFF02
:101EB000681CC5B2822DF8DB601CC4B2082CE7DBBD
:101EC00070BD07E040F2375100BF0A00A1F10101E7
:101ED000FBD1401E0028F5D1704708B5012108202C
:101EE000FFF7B2FA4020ADF8000003208DF80200A1
:101EF00010208DF8030069469948FEF7E9FF80201D
:101F0000ADF8000069469648FEF7E2FF4FF4807096
:101F1000ADF8000069469248FEF7DAFF4FF4007012
:101F2000ADF8000069468E48FEF7D2FF002240213E
:101F30008B48FFF77EF8002280218948FFF779F867
:101F400000224FF480718648FFF773F800224FF4A7
:101F500000718348FFF76DF8012251028048FFF7B6
:101F600068F8002280217E48FFF763F83220FFF7EF
:101F7000A8FF012280217A48FFF75BF8AE20FFF727
:101F800023FF0020FFF720FF1020FFF71DFF402058
:101F9000FFF71AFF8120FFF717FFCF20FFF714FF8D
:101FA000A120FFF711FFC820FFF70EFFA620FFF7C3
:101FB0000BFFA820FFF708FF3F20FFF705FFD32006
:101FC000FFF702FF0020FFF7FFFED520FFF7FCFE22
:101FD0008020FFF7F9FED920FFF7F6FEF120FFF78A
:101FE000F3FEDA20FFF7F0FE1220FFF7EDFEDB2014
:101FF000FFF7EAFE4020FFF7E7FE2020FFF7E4FEB0
:102000000220FFF7E1FE8D20FFF7DEFE1420FFF730
:10201000DBFEA420FFF7D8FEA620FFF7D5FEAF20F9
:10202000FFF7D2FE0020FFF713FF00210846FFF75D
:10203000FBFE08BD70B505460C46E1102846FFF7CB
:10204000F3FE2046E11704EB5171C910A4EBC10265
:1020500001219140CEB2B02101EBE401C8B2FFF7FB
:10206000B3FE102141EA1510FFF7AEFE05F00F0098
:10207000FFF7AAFE3046FFF777FE70BD2DE9F04767
:1020800007460C4690461D46DDF820A0E110384674
:10209000FFF7CAFE3E4613E0A146E11704EB51717B
:1020A000C910A4EBC10201219140C8B2FFF75CFE48
:1020B000BAF1010F02D13220FFF703FF701CC6B244
:1020C0004645E9DDE9103846FFF7AEFE3E4613E02F
:1020D000A946E91705EB5171C910A5EBC102012111
:1020E0009140C8B2FFF740FEBAF1010F02D10520BE
:1020F000FFF7E7FE701CC6B24645E9DDBDE8F08794
:102100002DE9F0470446884615464FF000090026A1
:10211000002720E0E85D203800F0FF097E2C04DD78
:10212000002408F1010000F0FF0841462046FFF7B7
:102130007BFE002609E009EB49010A4A02EB410156
:10214000885DFFF711FE701CC6B2062EF3DBA01DE2
:10215000C4B2781CC7B2E85D0028DBD1BDE8F087C7
:10216000000C0140DE3100082DE9F04706460F461D
:10217000904600250024A14631E018F809002038D7
:10218000C5B2782E02DD0026781CC7B2394630462B
:10219000FFF74AFE002407E004EB0511FE4A505CFD
:1021A000FFF7E2FD601CC4B2082CF5DB781CC1B25D
:1021B0003046FFF739FE002408E004EB0511083132
:1021C000F54A505CFFF7D0FD601CC4B2082CF4DB6C
:1021D00006F10800C6B209F1010000F0FF0918F885
:1021E00009000028C9D1BDE8F0872DE9F0478146F4
:1021F0000F4690460024002601256BE000240125AF
:1022000013E0E648005D18F8061088420BD1E34958
:10221000601C095C701C18F80000814203D1C4EBFB
:10222000C400450005E0A01CC4B2DC48005D7F2866
:10223000E7DC00BFB9F1760F03DD4FF00009781C31
:10224000C7B239464846FFF7EFFD012D1FD039468A
:102250004846FFF7E9FD002406E0D149485DFFF755
:1022600083FD6D1C601CC4B20E2CF6DB781CC1B261
:102270004846FFF7D9FD002406E0C949485DFFF74D
:1022800073FD6D1C601CC4B20E2CF6DB1CE0701CD0
:10229000C6B239464846FFF7C7FD002404E00020D7
:1022A000FFF762FD601CC4B2102CF8DB781CC1B2D1
:1022B0004846FFF7B9FD002404E00020FFF754FD75
:1022C000601CC4B2102CF8DB09F10E0000F0FF090D
:1022D000B01CC6B218F8060000288FD1BDE8F08700
:1022E000F8B506460F461546002427E0285D7F28EE
:1022F00014DD285D8DF80000601C285C8DF801005D
:1023000000208DF802006A4639463046FFF76DFF1F
:1023100006F10E00C6B2A01CC4B20FE0285D8DF815
:10232000000000208DF801006A4639463046FFF76C
:102330001BFF06F10800C6B2601CC4B2285D00286D
:10234000D4D1F8BD2DE9F05F06460F4690461C46F5
:10235000DDF828A04FF0000BE11704EB5171C91014
:10236000A4EBC10131B92046E11704EB5171C1F36F
:10237000C70506E02046E11704EB5171C910491C5E
:10238000CDB23D4614E029463046FFF74DFDB1463B
:102390000AE059460BF1010B1AF80100FFF7E4FCC3
:1023A00009F1010000F0FF09C145F2DD681CC5B26A
:1023B000A542E8DDBDE8F09F70B50026002411E0DD
:1023C00021461020FFF730FD102507E03146761C2E
:1023D000744A505CFFF7C8FC681CC5B2702DF5DB71
:1023E000601CC4B2082CEBDB70BD2DE9F041054642
:1023F0000027002410E021462220FFF715FD2226A9
:1024000006E039467F1C685CFFF7AEFC701CC6B264
:102410005E2EF6DB601CC4B2072CECDBBDE8F0815D
:102420002DE9FC4106460F46144600208DF80500B4
:102430000A20B4FBF0F100FB114030308DF80400AD
:102440000A20B4FBF0F00A21B0FBF1F201FB12000C
:1024500030308DF803006420B4FBF0F0B0FBF1F2F3
:1024600001FB120030308DF802004FF47A70B4FB9B
:10247000F0F0B0FBF1F201FB120030308DF80100FA
:1024800042F21070B4FBF0F0B0FBF1F201FB12006D
:1024900030308DF8000000250AE01DF805003028D6
:1024A00003D120200DF8050000E003E0681CC5B250
:1024B000042DF2DB00BF6A4639463046FFF720FEA6
:1024C000BDE8FC812DE9FC4106460F46154600207B
:1024D0008DF805003449284600F084FD05460021AA
:1024E000284600F04BFE3CD22B208DF800002846F9
:1024F00000F028FD0A2190FBF1F201FB12003030C0
:10250000C0B28DF80400284600F01CFD0A2190FBA3
:10251000F1F090FBF1F201FB12003030C0B28DF807
:102520000300284600F00EFD642190FBF1F00A2123
:1025300090FBF1F201FB12003030C0B28DF80200C6
:10254000284600F0FFFC4FF47A7190FBF1F00A216D
:1025500090FBF1F201FB12003030C0B28DF80100A7
:1025600049E02D208DF8000085F00045284600F058
:10257000E9FC0A2190FBF1F201FB12003030C0B2FD
:102580008DF80400284600F0DDFC0A2190FBF1F0F4
:1025900090FBF1F20AE000007D36000806340008E6
:1025A000313400084A0000200000204101FB1200E5
:1025B0003030C0B28DF80300284600F0C3FC64211F
:1025C00090FBF1F00A2190FBF1F201FB1200303098
:1025D000C0B28DF80200284600F0B4FC4FF47A71C6
:1025E00090FBF1F00A2190FBF1F201FB1200303078
:1025F000C0B28DF8010000240AE01DF80400302864
:1026000003D120200DF8040000E003E0601CC4B2F8
:10261000042CF2DB00BF6A4639463046FFF770FDF6
:10262000BDE8FC8110B5044606212046FFF7FCFBFF
:10263000B620FFF7C9FB102141EA1410FFF7C4FBD5
:1026400004F00F00FFF7C0FB0020FFF78DFB072110
:102650002046FFF7E9FBB720FFF7B6FB102141EA60
:102660001410FFF7B1FB04F00F00FFF7ADFB0020E3
:10267000FFF77AFB10BD000000BF0100A0F10100D0
:10268000FBD1704708B54FF40040ADF800000420BE
:102690008DF8030069468E48FEF71AFC08BD08B5A0
:1026A0004FF40040ADF8000003208DF80200102028
:1026B0008DF8030069468648FEF70AFC08BD10B590
:1026C000FFF7EDFF4FF400418148FEF7AEFC4FF4F9
:1026D00000417F48FEF7ABFC46F2A810FFF7CCFFA5
:1026E0004FF400417A48FEF7A0FC3720FFF7C4FF03
:1026F00010BD10B50024FFF7C5FF4FF4004174482A
:10270000FEF779FC012801D1002010BD01E0601C1A
:10271000C4B24FF400416E48FEF76DFC08B9642C5A
:10272000F5DB2820FFF7A8FF2820FFF7A5FF0120F1
:10273000EBE710B5002404E0601CC4B20220FFF7F0
:102740009BFF4FF400416248FEF755FC012801D180
:10275000322CF1DB002404E0601CC4B20220FFF73D
:102760008BFF4FF400415A48FEF745FC08B9322C64
:10277000F2DB2820FFF780FF4FF400415448FEF7BA
:102780003AFC012800D110BD0020FCE770B5002400
:10279000002506E06006040EFFF7CBFF0443681C2B
:1027A000C5B2082DF6DB204670BD7CB505460E4649
:1027B000FFF785FFFFF79DFFF8B9002405E0FFF75D
:1027C000E5FF0DF80400601CC4B2052CF7DB9DF892
:1027D00000009DF8011008449DF8021008449DF87F
:1027E000031008449DF80410884208D19DF80000A9
:1027F00030709DF80200287001E001207CBD0020AF
:10280000FCE710B501211020FEF71EFEFFF757FF71
:10281000FFF76FFF10BD2DE9F05F04460027B946B2
:10282000BA4601264FF0000BFFF72CFF4FF00008CF
:1028300035E080262AE003E009F1010000F0FF09FD
:102840004FF400412248FEF7D6FB10B9B9F1320F20
:10285000F2DB1E20FFF710FF4FF400411C48FEF78B
:10286000CAFB012801D1374300E0B74303E00AF176
:10287000010000F0FF0A4FF400411548FEF7BBFBD2
:10288000012802D1BAF1320FF1DB7610002ED2D13D
:1028900004F80870002708F1010000F0FF08B8F103
:1028A000050FC6DB002505E0605D584400F0FF0B16
:1028B000681CC5B2042DF7DB0BF0FF0083462179BD
:1028C000884202D10120BDE8F09F0020FBE7000014
:1028D00000100140704700000FB41CB5074B06AA5A
:1028E0007B4469460090059800F093F90020694602
:1028F00000F0A2F91CBC5DF814FB000055030000B9
:1029000070B5044685690068C10601D5302600E02F
:102910002026C00707D070BDD4E90121304690477A
:10292000206A401C20626D1EF6D570BD70B504464D
:1029300085690078C00707D170BDD4E90121202046
:102940009047206A401C20626D1EF6D570BD0000C5
:102950002DE9F0410646002410687529314616A578
:1029600010D0AFF30080002802DA404213A507E040
:1029700031688A0701D512A502E0490704D511A5DF
:10298000012401E0AFF3008000210A2206F12407B0
:1029900009E0B0FBF2FCB0FBF2F302FB1C003030AC
:1029A00078541846491C0028F3D123462A4630465D
:1029B000BDE8F04100F0CFB8000000002D0000009D
:1029C0002B000000200000002DE9F05F894604463E
:1029D0004FF0000ADFF824B1FB44C0F820A02046E5
:1029E000E168884700287DD0252806D0D4E9012158
:1029F0009047206A401C2062F1E700255F46204690
:102A0000E16888472028064607DB312E05D2B81931
:102A100010F8200C08B10543F1E7A80701D525F00F
:102A20000405C4F81CA00027C4F818A02A2E09D059
:102A3000304600F035F938B304EB8708303EC8F86B
:102A4000186019E059F8041B204604EB87029161D5
:102A5000E1688847012F064618D1E069002820DA8E
:102A600025F020051DE0D8F8180000EB800006EBEB
:102A700040003038C8F818002046E168884706460C
:102A800000F00EF90028EED1012F0AD02E2E08D129
:102A90002046E16888477F1C0646022F45F0200546
:102AA000C4DBA069002803DA404245F00105A061BB
:102AB000E80701D025F01005A6B1A6F141001928BC
:102AC00002D8203645F400654A4631462046256046
:102AD0004D46FDF78BFB60B1012807D0ED1D25F0B9
:102AE000070000E007E000F1080978E705F10409B4
:102AF00075E730467AE7206ABDE8F09F7114000060
:102B00004FF0000200B5134694469646203922BF86
:102B1000A0E80C50A0E80C50B1F12001BFF4F7AFD1
:102B2000090728BFA0E80C5048BF0CC05DF804EBB3
:102B3000890028BF40F8042B08BF704748BF20F821
:102B4000022B11F0804F18BF00F8012B704770471F
:102B50007047704770472DE9F0470D4699469246F9
:102B6000044600F124080168880604D5E06921F0D4
:102B70001001216000E00120A84201DD471B00E0B8
:102B80000027A1697A1902EB0900081AA0612078D0
:102B9000C00602D42046FFF7B3FE002608E0D4E9C1
:102BA00001211AF806009047206A401C761C20621A
:102BB0004E45F4DB2078C0060AD52046FFF7A0FE7C
:102BC00006E0D4E9012130209047206A401C2062B1
:102BD000381EA7F10107F4DC07E0D4E9012118F859
:102BE00005009047206A401C2062281EA5F10105BF
:102BF000F3DC2046FFF79AFE2078000602D502207B
:102C0000BDE8F0870120FBE701694A1C02610878F2
:102C1000704700B58FB0CDE901310021059105491C
:102C20007944CDE9031011466846FFF7CDFE0FB099
:102C300000BD0000E5FFFFFF0A6802F8010B0A6013
:102C40007047754600F028F8AE46050069465346C1
:102C500020F00700854618B020B5FEF759F8BDE80A
:102C600020404FF000064FF000074FF000084FF0F3
:102C7000000B21F00701AC46ACE8C009ACE8C00984
:102C8000ACE8C009ACE8C0098D4670470446AFF314
:102C900000802046FDF7BCFA00487047140400206D
:102CA00030380A2801D20120704700207047000008
:102CB0004FEA1153A3F58063D3F11E03A8BFD3F1EC
:102CC000200C08DB4FF0004242EAC12252EA505287
:102CD00032FA03F0704709420BD4102BC4BF002016
:102CE000704703F5787CBCF1FF3F05D04FF0FF3013
:102CF00070474FF00000704770B500F0C3F800BF98
:102D00004992248000207047F0E7B0FA80F310FA6F
:102D100003F10AD0C3F11D0303F580634FEA41506C
:102D20004FEA035202EBD12170474FF00000704789
:102D3000DFF848C170B51CEA111E1EBF1CEA13154E
:102D40009EEA0C0F95EA0C0F00F06F8081EA0304F5
:102D500023EA4C134EEAD47E21EA4C1141F480114F
:102D600043F48013AE44A1FB024CA0FB0365AEF11B
:102D70007F7E361955EB0C05A1FB034C4CF100038B
:102D8000A0FB021C16EB0C06654153F1000309423F
:102D900018BF46F0010613F4007F0BD14FEA033150
:102DA0004FEA0530340341EA155140EA16506FF0FE
:102DB00003020AE04FEAC3214FEAC520F40241EAC8
:102DC000555140EA56506FF0020202EB2E4201EBE1
:102DD000025585EACE710AD05FEA440C18BF24F090
:102DE000004450F1000041F1000120EAD47040F2AB
:102DF000FE7C624500D270BDA84214BF4FF08044F3
:102E00004FF04044002E08BF0024BEF1806FA8BFE1
:102E1000A1F1C041BDE8704080F282804FF0000017
:102E200001F1C04101F0004170479EEA0C0F0CEA2D
:102E3000131518BF95EA0C0F06D04FF0000081EA79
:102E4000030E0EF0004170BD00F01CF88900013E39
:102E500000F007B800F009B84FEA430C5FEA5C5C89
:102E600008D081EA030100F05BB84FEA410C5FEA49
:102E70005C5CF6D14FF00000014970470000FF078D
:102E80000000F87F0EF1020E2EF0030E5EF8046BC8
:102E9000364205D4012A43EB030515F5001F12D86D
:102EA000012841EB010C1CF5001F0CD80ED14FEA94
:102EB000D17C15F5001F0CEB4C0C0CF1020C08BF7B
:102EC0004CEBD37C04E04FF0080C01E04FEAD37CDC
:102ED0000CEB4C0526FA05F606F00706B6F1040CD5
:102EE00006D20EEB860CBDE870404CF0010C60473A
:102EF000DFE80CF0090B02024FF000414FF0000038
:102F0000A1F5002170BD19461046012851EB0104BE
:102F100018BFD4F5001484BF002001F0004170BD3B
:102F20000808A0F500114FEA31017047401058BF62
:102F3000C0F14040491058BFC1F140418142EFF318
:102F40000080704741000B0ED3F19E0208D950F467
:102F500000034FEA032323FA02F048BF40427047C0
:102F600010B500F0C0F800BF4992248000207047DF
:102F70006FF0004282EA20007047000050EA010C26
:102F800000F113801CF5000F58BFBCF5000F01D4F1
:102F90008842704707D710F5000F58BF11F5000F92
:102FA00015D488427047894270471CF5000F04D53C
:102FB000BCF5000FF7D5814270474FF0807C1CEBC9
:102FC000400F38BF1CEB410F01D28142704710B552
:102FD00000F089F8922449004FF000504FF08051E2
:102FE000FFF7A4BF4FF47F0C1CEAD0121EBF1CEAEF
:102FF000D11392EA0C0F93EA0C0F00F0478090EA8D
:10300000010F48BF42F480724FF0004C4CEA0020A0
:103010004CEA012102EB0302A0FB0113A2F500021E
:10302000002918BF43F001035B0028BF4FEA3303B8
:1030300042EB22425FEA132C4CEBC2502EBFBCEB9A
:10304000436FB2F57C0F70474FEA036CBCF1004F41
:1030500008BF20F00100B2F57C0F38BF70470BD5D8
:1030600082F0FF0212F5803FC8BF704700F1C040F8
:10307000D8BF00F00040704700F5000C5FEA4C0C30
:1030800048BF7047B0F1C04000F073B890EA010F3C
:103090000CEAD11348BF42F48072624538BF6345E1
:1030A00004D280EA010000F00040704710B500F043
:1030B0001AF800BF8900013E00F007B800F009B817
:1030C0005FEA410C5FEA1C6C08D080EA010000F066
:1030D00050B85FEA400C5FEA1C6CF6D14FF000403C
:1030E000A0F5800070470EF1020E2EF0030E5EF880
:1030F000044B244204D44FEA4102B2F17F4F11D86D
:103100004FEA4003B3F17F4F0CD80ED14FEAD07C89
:10311000B2F17F4F0CEB4C0C0CF1020C08BF4CEBE6
:10312000D17C04E04FF0080C01E04FEAD17C0CEBBD
:103130004C0324FA03F404F00704B4F1040C06D29F
:103140000EEB840CBDE810404CF0010C6047DFE84A
:103150000CF0070802024FF00040A0F5800010BDFF
:103160000846420018BFD2F1807288BF00F00040CC
:1031700010BDFF2141EAD050C005704751EA000C54
:1031800000F113801CF5000F58BFBCF5000F01D4EF
:103190008142704707D711F5000F58BF10F5000F97
:1031A00015D481427047894270471CF5000F04D541
:1031B000BCF5000FF7D5884270474FF0807C1CEBC0
:1031C000410F38BF1CEB400F01D28842704780EAA4
:1031D000010081EA000180EA0100FFF7F8BE00006B
:1031E000000000000000002F0000000007000700A2
:1031F00000147F147F1400242A7F2A1200626408BE
:10320000132300364955225000000503000000003A
:103210001C224100000041221C000014083E08143A
:103220000008083E0808000000A060000008080828
:103230000808000060600000002010080402003E42
:103240005149453E0000427F4000004261514946DD
:10325000002141454B31001814127F1000274545CD
:103260004539003C4A4949300001710905030036DF
:103270004949493600064949291E000036360000F2
:1032800000005636000000081422410000141414F7
:1032900014140000412214080002015109060032F2
:1032A0004959513E007C1211127C007F4949493630
:1032B000003E41414122007F4141221C007F49499B
:1032C0004941007F09090901003E4149497A007FCF
:1032D0000808087F0000417F4100002040413F0175
:1032E000007F08142241007F40404040007F020CD4
:1032F000027F007F0408107F003E4141413E007F75
:1033000009090906003E4151215E007F091929463D
:103310000046494949310001017F0101003F404019
:10332000403F001F2040201F003F4038403F0063C7
:1033300014081463000708700807006151494543E9
:1033400000007F41410000552A552A5500004141A7
:103350007F000004020102040040404040400000A1
:1033600001020400002054545478007F484444383B
:1033700000384444442000384444487F00385454C2
:10338000541800087E0901020018A4A4A47C007F40
:10339000080404780000447D4000004080847D00E3
:1033A000007F102844000000417F4000007C04188A
:1033B0000478007C0804047800384444443800FC55
:1033C000242424180018242418FC007C0804040871
:1033D00000485454542000043F444020003C4040E6
:1033E000207C001C2040201C003C4030403C00441D
:1033F00028102844001CA0A0A07C004464544C4425
:10340000141414141414C6FBB3B5B7C0B5C1CFB5AA
:10341000CDB3CEC2B6C8CEDEC8CBB7A2C9FAD5F0FE
:10342000B6AFE3D0D6B5C9E8D6C3C9CFCFDEA3BA0D
:103430000020420480104857545454D40400000023
:103440001806010000000000000F103C000004649A
:10345000544C47F444444444040000020202020273
:10346000023F0202020202020000FE0232CE000807
:10347000F8494A48C80800003F0404032018070020
:1034800020201F000040211200484423120E122267
:1034900046400020203F21213F213F21213F202085
:1034A00000000222B2AA6622211149810000000018
:1034B00011090521213F010105091300009854332A
:1034C000180088C8B98A88A8C808001111090920FD
:1034D000100C03001F2021380010228400007F49B7
:1034E0004949497F000000180601203F213F212162
:1034F0003F213F20000000FC14147C555654547C9E
:103500001414002018072021131509091513212070
:10351000004042424242C27EC242424242400020F9
:103520001008040201001F202020203800000000A5
:103530000000C03FC000000000000020201008066E
:1035400001000106081020200000181610D0B897BE
:103550009090909214100008042221201314081453
:10356000122120200040300E080808FF0808080833
:103570000800002020212121213F2121212120207C
:10358000000C85A5ADA585BF85A5ADA5850C002042
:103590001F080A3A2A0A1A2A2A3A2820002022E278
:1035A0002222200808FF080808F800040704040580
:1035B0002E100C030020201F0000F902D052D2125E
:1035C000FE12D21602FE00003F0013120B28130C4D
:1035D0001338203F002010FC0304F454545F54546B
:1035E000F4040000003F00203F25252525253F202D
:1035F000002021E60040A09E8282829EA020000042
:10360000001F0824201314081412212000002FA9E1
:10361000A9AFA9F9A9AFA9A92F000020203F202018
:10362000203C2020203F202000000000000000FF60
:10363000202020202000002020202020203F2020AB
:10364000202020200000FE0232CE00FE92929292B4
:10365000FE0000003F040403003F1008030C122189
:1036600000000000C0C000000000000000000000DA
:1036700000000C0C00000000000000000000000032
:10368000000000000000000000000000000000003A
:10369000F800000000000000333000000000100CB3
:1036A00006100C0600000000000000000040C0787A
:1036B00040C0784000043F04043F040400007088C8
:1036C000FC08300000001820FF211E0000F008F068
:1036D00000E018000000211C031E211E0000F0085D
:1036E00088700000001E2123241927211010160EB7
:1036F00000000000000000000000000000000000CA
:10370000E018040200000000071820400000020436
:1037100018E0000000004020180700000040408032
:10372000F0804040000202010F0102020000000090
:10373000F0000000000101011F0101010000000074
:10374000000000000080B0700000000000000000D9
:103750000000000000000101010101010100000062
:1037600000000000000030300000000000000000F9
:103770000080601804006018060100000000E010DE
:10378000080810E000000F102020100F000010109B
:10379000F8000000000020203F20200000007008FA
:1037A00008088870000030282422213000003008EA
:1037B00088884830000018202020110E000000C02A
:1037C0002010F8000000070424243F240000F8081B
:1037D00088880808000019212020110E0000E01040
:1037E0008888180000000F112020110E00003808F2
:1037F00008C83808000000003F0000000000708882
:103800000808887000001C222121221C0000E01002
:10381000080810E0000000312222110F0000000013
:10382000C0C00000000000003030000000000000B8
:1038300080000000000000806000000000000080A8
:103840004020100800000102040810200040404001
:103850004040404000040404040404040000081034
:103860002040800000002010080402010000704881
:10387000080808F0000000003036010000C030C821
:1038800028E810E0000718272423140B000000C0CC
:1038900038E0000000203C23020227382008F88886
:1038A0008888700000203F202020110E00C03008C2
:1038B0000808083800071820202010080008F80819
:1038C000080810E000203F202020100F0008F88892
:1038D00088E8081000203F20202320180008F888DE
:1038E00088E8081000203F200003000000C03008D6
:1038F000080838000007182020221E020008F808D7
:10390000000008F808203F210101213F200008089D
:10391000F8080800000020203F20200000000008D8
:1039200008F8080800C08080807F00000008F88840
:10393000C028180800203F20012638200008F80879
:103940000000000000203F20202020300008F8F870
:1039500000F8F80800203F003F003F200008F83042
:10396000C00008F808203F200007183F00E01008BA
:10397000080810E0000F10202020100F0008F808A1
:10398000080808F000203F210101010000E01008B4
:10399000080810E0000F18242438504F0008F88859
:1039A0008888887000203F2000030C302000708839
:1039B00008080838000038202121221C00180808B7
:1039C000F8080818000000203F2000000008F80850
:1039D000000008F808001F202020201F0008788819
:1039E0000000C83808000007380E010000F8080081
:1039F000F80008F800033C0700073C0300081868BB
:103A0000808068180820302C03032C30200838C828
:103A100000C83808000000203F20000000100808FF
:103A200008C838080020382621202018000000008F
:103A3000FE020202000000007F40404000000C3007
:103A4000C000000000000000010638C000000202B3
:103A500002FE000000004040407F00000000000423
:103A6000020202040000000000000000000000004C
:103A70000000000000808080808080808000020242
:103A800004000000000000000000000000000080B2
:103A900080808000000019242222223F2008F800A4
:103AA0008080000000003F112020110E0000000067
:103AB0008080800000000E112020201100000000F6
:103AC000808088F800000E112020103F2000008028
:103AD0008080800000001F222222221300008080AC
:103AE000F0888888180020203F20200000000080F7
:103AF0008080808000006B94949493600008F800AC
:103B00008080800000203F210000203F200080981E
:103B100098000000000020203F202000000000004E
:103B2000809898000000C08080807F000008F80026
:103B30000080808000203F24022D302000000808F3
:103B4000F8000000000020203F202000008080803E
:103B50008080808000203F20003F20003F80800048
:103B60008080800000203F210000203F2000008056
:103B70008080800000001F202020201F0080800007
:103B8000808000000080FFA12020110E00000000B6
:103B90008080808000000E112020A0FF8080808027
:103BA000008080800020203F212000010000008054
:103BB0008080808000003324242424190000808029
:103BC000E0808000000000001F20200000808000B6
:103BD0000000808000001F202020103F2080808077
:103BE000000080808000010E300806010080800007
:103BF00080008080800F300C030C300F000080802C
:103C000000808080000020312E0E312000808080D6
:103C1000000080808080818E701806010000808006
:103C200080808080000021302C22213000000000A4
:103C300000807C020200000000003F4040000000C5
:103C400000FF00000000000000FF00000000020272
:103C50007C800000000040403F00000000000601A2
:103C60000102020404000000000000000000000047
:103C70000000000000000000000000000000000044
:103C80000000000000000000000000000000000034
:103C90000000000000000000000000000000000024
:103CA000000000000000000000000000000000C054
:103CB000E0F8FCFE7F3F0F0F07070787C7C7C7E77E
:103CC000EFFFFFFFEFE7E7E7E7E7EFFFFFFFEFE7D4
:103CD000E7E7E7E7F7070F3F7FFFFEFCF0C00000D4
:103CE0000000000000000000D8DCDFDFDFDFD701CC
:103CF0000000000000003E7FFFFFE3E1E1FFFFFF67
:103D0000E0E0E0E0E0E0E0FFFFFFE0E0E0E0C183D2
:103D1000070000000001D7DFDFDFDFDCD800000094
:103D20000000000001030F1F3FFFFFFEF8F0E0C09E
:103D3000800000F8F0E0C0C0C0FFFFFFC0C0C0C0FE
:103D4000C0C0C0FFFFFFC0E0E1F3FF7F3F00C0E065
:103D5000F8FEFFFFFF3F1F0701000000000000000A
:103D60000000000000000001070F3F7FFFFEFCF98C
:103D7000F3C1810101FFFFFF01010101010101FF09
:103D8000FFFF030181C0F0FCFEFFFF7F3F0F070331
:103D90000000000000000000000000000000000023
:103DA00000000000000000000003070F3F7FFFFF3E
:103DB000FFFBF3E3C3030303030383C3F3F3FBFF3B
:103DC000FFFF7F3F0F030100000000000000000024
:103DD00000000000000000000000000000000000E3
:103DE00000000000000000000000000307071F3F64
:103DF0007FFFFEFCFCFEFFFF7F3F0F07030000007C
:103E000000000000000000000000000000000000B2
:103E100000000000000000000000000000000000A2
:103E20000000000000000000000000000000030788
:103E30000F0F07010000000000000000000000005C
:103E4000000000000000000000000000000400006E
:103E50000800000000000000020001000010000047
:103E6000803E0008000000204C0300006C010008A8
:103E7000604000084C0300202C070000D00100081F
:103E8000021600016004A24A040BC00901020304E7
:103E900006070809212116611A0005100204060808
:103EA00043100E8080C0C0C0606060303030381871
:103EB00001220C01A0050E0E0E0601330E0E172274
:103EC0001C211129000917706060E0C0C080809833
:103ED000000F1180C0E07030381C0C06070303018E
:103EE0000174413B10078080F0F8F8F00C10088056
:103EF000E0F0F8FC3C1C622005FCF8F0E01D900F9F
:103F0000C0C0C101030307060E0C183870606C3086
:103F10000EC0F0781E0733313878FCFEF6C047112A
:103F20008A100D00F8FCDE0E0F1EBEFCF006FF012D
:103F300010130307FFFFFE801E3FFFFFF9F9FFFF8D
:103F40007F1F0E7F162007C180CECEC6C01F10096E
:103F50003F80FCFCFD7D01C07C30047000C08D20E2
:103F60000601070E3CF8796404FEFF0351100F03AD
:103F70000F1F7FFEFCF0F0F07F7F3E10030E100756
:103F80001F0F0F0304070113060006100D0F1E3F3D
:103F90007F7F7F79733F3F1F0E2D120317100E0E88
:103FA0000F0F1F3F3D080C1F1F1F193C1D6408F316
:103FB000F0FCFE3F1F0701840ACFFF7000031F7E45
:103FC000F0C00A651F1004C0C040011008F8784016
:103FD000C04058580BB52710060060F0E0200125BE
:103FE000A2C610DF855D500680E0F83F0F5514062D
:103FF000070E1C3830A3653514104060607030180F
:104000000C0711083F7D66E7E3F133E0607D11ECBA
:1040100015FB100660607F7F6101210617E1E0DA81
:10402000B5CA15CB12383C061003C71601A26808A2
:1040300006060C0C1818381411011550128104854D
:10404000B27280013120496C380618181C0C0E1F02
:10405000022C0001420101B20301511501224B0063
:0400000508000131BD
:00000001FF
